:03000000020FC428
:0C0FC400787FE4F6D8FD75815B02100B0D
:101050005448303A20005448302A3235363A20007D
:101060005448303C3C3A2000544C303A2000205642
:101070002000206D6F646520002023524553554C9D
:101080005423200073756D3A200066696C74657294
:101090003A2000204F564552464C4F5720002073AF
:1010A00074617274206D6F646520002073746172C6
:1010B000742000206465627567206D6F6465200090
:0910C000206465627567202000C0
:031347000157004B
:10123800758925758DFD758BFD75CB4CE4F5CA1246
:101248001341D2CAD28ED28CD29CC29FD29ED2AF28
:0F125800D2ACD2A9D2ADD2AAD2A8C28AD2882251
:100DF100121238E4F551F552C290E55264014551A1
:100E01006003020E87C2ACAF591211FCE559647040
:100E1100455870417BFF7A1079501212D4AF8C7E05
:100E2100001213257BFF7A1079561212D4AF8CEF82
:100E31007F00FE1213257BFF7A1079601212D47F96
:100E4100007E001213257BFF7A1079681212D4AF4D
:100E51008A7E008027E5596474455870227BFF7AA9
:100E610010796E1212D4A280E4FE33FF1213257B97
:100E7100FF7A1079721212D4AF577E00121325D265
:100E8100ACE4F551F552E55764026003020DF91225
:100E91000D238E088F097BFF7A1079791212D4AF56
:090EA10009AE08121325020DF937
:0B131A0020B707B29230B7FDB292225C
:100D2300E4F50AF50BF50CF50DF510751102121229
:100D3300A2E4F516F517C3E5179406E516940040EB
:100D430003020DEA12131AE50B65547004E50A65F4
:100D53005360E3AE53AF547C007D14120C7EED64FC
:100D6300014C70D2C2AC050DE50D7002050CAC1040
:100D7300AD11AE0CFF120C7EED64014C705E0517D5
:100D8300E51770020516E556FEAD8C7C00E42DF5E3
:100D93000FEC3EF50EFCAD0FE4120AA38F158E1473
:100DA3008D138C127BFF7A1079841212D4AF0FAE9D
:100DB3000E1213257BFF7A10798A1212D412133084
:100DC300120ADC1213251212BBAF15AE14AD13AC0D
:100DD30012120F37121341E4F555F556D2AC855371
:0D0DE3000A85540B020D39121330120ADC80
:010DF00022E0
:03000B000211706F
:10117000C0E0C0F0C083C082C0D075D000C000C045
:1011800001C002C003C004C005C006C0077BFF7ACF
:101190001079931212D40556E55670020555C28F88
:1011A000D007D006D005D004D003D002D001D000A3
:0B11B000D0D0D082D083D0F0D0E0324D
:030003000210C91F
:1010C900C0E0C0F0C083C082C0D075D000C000C0ED
:1010D90001C002C003C004C005C006C0077F0A7E64
:1010E900001212677BFF7A10799E1212D430B2FD7A
:1010F9007557027BFF7A1079AB1212D4D007D0064C
:10110900D005D004D003D002D001D000D0D0D082F5
:07111900D083D0F0D0E032DA
:03001300021120B7
:10112000C0E0C0F0C083C082C0D075D000C000C095
:1011300001C002C003C004C005C006C0077BFF7A1F
:101140001079B31212D430B3FD7557017BFF7A10BA
:1011500079C01212D4D007D006D005D004D003D065
:1011600002D001D000D0D0D082D083D0F0D0E032F5
:030023000212873F
:10128700C0D075D000C007C298AF997558008F5964
:0B129700755100755201D007D0D03215
:03002B000212FEC0
:0F12FE00C0E0C2CF0554E55470020553D0E03272
:0D130D005245534554200070332E37200008
:10126700E4FDFCC3ED9FEC9E5015E4FBFA0BBB00BD
:0F127700010AEB646E4A70F50DBD00010C80E4B6
:011286002245
:06134100E4F58CF58A22A0
:1011FC008F0AE50AB4720C7BFF7A13790D1212D4A4
:10120C00021341E50AB4640BAF8C7E00121325AFB8
:10121C008A8013E50AB465137BFF7A1379141212D2
:0C122C00D4E5B06407FF7E0012132522F9
:0B132500120EAA1212D47F200213390E
:100EAA00E4FBFA8F22900001E52275F00A84F975B5
:100EBA00F00AA4FFC3E5229F2430FF74182BF8A67A
:100ECA00070BBB00010AE9700874182BF8E4F680D6
:100EDA001389227C007D0AAF82AE83120C6C8E834A
:100EEA008F8280C4E4F583F5827C007D02AF03AE75
:100EFA0002120CD3C3E5829FEE6480F8E583648016
:100F0A00985023AF8274182FF8E6F9C3EB9FFF7449
:100F1A00172FF8E6FDAC8274182CF8A60574172F63
:0C0F2A00F8A601A380C37B007A007918B0
:010F36002298
:081339008F993099FDC2992241
:1012D400120C536010F5993099FDC299740129F9E3
:0612E400E43AFA80EB225F
:1012EA0040533333404CCCCD4046666640333333AB
:0412FA00402CCCCDEB
:1012A20075320A7531D7753023752F3C75360A753C
:0912B20035D775342375333C2255
:1012BB0085262A85252985242885232785323A8565
:0912CB003139853038852F3722B6
:100F37008F1B8E1A8D198C18AF36AE35AD34AC3386
:100F4700AB32AA31A930A82F120807A804A905AA0D
:100F570006AB07AF32AE31AD30AC2F120A018F2E80
:100F67008E2D8D2C8C2BAB2EAA2DA92CA82BE4FF14
:100F7700FE7D807C3F120803AB32AA31A930A82F2F
:100F87001208F88F3A8E398D388C37AB2AAA29A9DF
:100F970028A827AF1BAE1AAD19AC18120803AB2E41
:100FA700AA2DA92CA82B1208F8AB2AAA29A928A888
:0D0FB700271208078F268E258D248C2322FB
:09133000AF26AE25AD24AC23224A
:1011BB00783B7C007D007BFF7A1279EA7E007F14FE
:1011CB00120C2D1212A2E4F54FF5501212BBE55082
:1011DB0025E025E0243BF8120D17120F370550E5DB
:1011EB00507002054FC39405E54F6480948040DB3B
:0111FB0022D1
:10080000020B48E86480F8E933E83360110460F0D3
:10081000ED33EC337009E8FCE9FDEAFEEBFF22045E
:1008200060DED3EB9FEA9EE99DE8C2E78CF0C2F759
:1008300095F0400CE8CCF8E9CDF9EACEFAEBCFFB25
:10084000120B1385D0F05804700320D5B3E8047060
:10085000075002B2D5020B5292D5EC0460F7E4CCFB
:10086000C0E0C398F8603B94186008400DD0E0FBEE
:10087000020B2AE4FBFAC9FC8028E830E406E4C94C
:10088000FBE4CAFCE830E305E4C9CACBFCE8540742
:100890006010F8C3E913F9EA13FAEB13FBEC13FC4D
:1008A000D8F130F52FC3E49CFCEF9BFFEE9AFEEDF0
:1008B00099FDD0E0FBEF4E4D4C701222DB03020B92
:1008C0004FEC2CFCEF33FFEE33FEED33FDED30E764
:1008D000EB020B2AEF2BFFEE3AFEED39FDD0E0FBE9
:1008E00050130BBB0003020B52ED13FDEE13FEEF92
:0808F00013FFEC13FC020B2ABC
:1008F800EC4D6011E8497017ED33EC3304600DE4FA
:10090800FCFFFEFD22E933E8330470F8020B4812BD
:100918000B1358046009E4CC2481500628500902BE
:100928000B52284003020B4FC0E0EB4A7044B980D9
:1009380006D0E0FB020B3EEF4E701CBD8008EBFFBB
:10094800EAFEE9FD80EBE98DF0A4FEE5F00209E19D
:10095800E9CDF9EAFEEBFFEF89F0A4FCE5F0CE89DA
:10096800F0A42EFFE435F0CD89F0A42DFEE435F097
:100978008067EF4E7005BD80D780C3EF8BF0A4ACC5
:10098800F0EE8BF0A42CFCE435F0F8EF8AF0A42C00
:10099800E5F038FCE433CB8DF0A42CFCE5F03BF813
:1009A800EE8AF0A42CFCE5F038F8E433CF89F0A403
:1009B8002CFCE5F038CF3400CE89F0A42FFFE5F009
:1009C8003EFEE433C98DF0A42EFEE5F039CD8AF061
:1009D800A42FFFE5F03EFEE43DFD33D0E0FB5007D9
:1009E8000BBB000F020B52EC2CFCEF33FFEE33FE77
:0609F800ED33FD020B2AA5
:1009FE00020B52EC5D046005E859047003020B48CB
:100A0E00120B13580460F6EC4860F2EC7004FDFE15
:100A1E00FF22C860DB2481C85009C39860025006CB
:100A2E00020B4F9850CAF582E9294B4A7005AB82EA
:100A3E00020B3E75F0007C1A7880C3EF9BEE9AEDA8
:100A4E0099400DC3EF9BFFEE9AFEED99FDE842F043
:100A5E00DC23ACF0D0E0FFD0E0FED0E0FDAB822096
:100A6E00E7101BEB60BAEC2CFCEF33FFEE33FEED20
:100A7E0033FD020B2AE803F830E705C0F075F000ED
:100A8E00EF2FFFEE33FEED33FD40B830E7C280AA04
:100A9E0075F020800E75F010800575F0087D007ED3
:100AAE00007F003392D530D503120D09EC33401080
:100ABE00EF33FFEE33FEED33FDEC33FCD5F0ED22DC
:0E0ACE00E5F0247EA2D513CC92E7CDCEFF2218
:100ADC00EDD2E7CD33EC3392D524814006E4FFFE12
:100AEC00FDFC22FCE4CFCECDCC24E0501174FF8071
:100AFC00EDC3CC13CCCD13CDCE13CECF13CF04700E
:070B0C00F030D5DE020D09F7
:100B1300E9D2E7C933E833F892D5EDD2E7CD33EC28
:070B230033FC5002B2D522A1
:100B2A00EC30E7100FBF000C0EBE00080DBD00042C
:100B3A000BEB6014A2D5EB13FCED92E7FD2274FFD8
:100B4A00FCFDFEFF22E480F8A2D574FF13FC7D8031
:030B5A00E480EF45
:100FD000020DF1E493A3F8E493A34003F68001F239
:100FE00008DFF48029E493A3F85407240CC8C33322
:100FF000C4540F4420C8834004F456800146F6DFF1
:10100000E4800B0102040810204080901347E47E26
:10101000019360BCA3FF543F30E509541FFEE493E5
:10102000A360010ECF54C025E060A840B8E493A3AC
:10103000FAE493A3F8E493A3C8C582C8CAC583CAD7
:10104000F0A3C8C582C8CAC583CADFE9DEE780BE8F
:01134A0000A2
:100B5D00E709F608DFFA8046E709F208DFFA803E7A
:100B6D0088828C83E709F0A3DFFA8032E309F60867
:100B7D00DFFA8078E309F208DFFA807088828C83CF
:100B8D00E309F0A3DFFA806489828A83E0A3F60883
:100B9D00DFFA805889828A83E0A3F208DFFA804C5D
:100BAD0080D280FA80C680D4806980F28033801034
:100BBD0080A680EA809A80A880DA80E280CA80339D
:100BCD0089828A83ECFAE493A3C8C582C8CCC58315
:100BDD00CCF0A3C8C582C8CCC583CCDFE9DEE780E5
:100BED000D89828A83E493A3F608DFF9ECFAA9F064
:100BFD00EDFB2289828A83ECFAE0A3C8C582C8CCBA
:100C0D00C583CCF0A3C8C582C8CCC583CCDFEADED2
:100C1D00E880DB89828A83E493A3F208DFF980CC34
:100C2D0088F0EF60010E4E60C388F0ED2402B4042D
:100C3D000050B9F582EB2402B4040050AF232345D4
:060C4D008223900BAD7341
:100C5300BB010689828A83E0225002E722BBFE029F
:090C6300E32289828A83E49322D2
:100C6C00EF8DF0A4A8F0CF8CF0A428CE8DF0A42E9C
:020C7C00FE2256
:100C7E00BC000BBE0029EF8DF084FFADF022E4CC5A
:100C8E00F875F008EF2FFFEE33FEEC33FCEE9DEC23
:100C9E00984005FCEE9DFE0FD5F0E9E4CEFD22ED69
:100CAE00F8F5F0EE8420D21CFEADF075F008EF2FB3
:100CBE00FFED33FD4007985006D5F0F222C398FDA4
:050CCE000FD5F0EA2241
:100CD300C2D5EC30E709B2D5E4C39DFDE49CFCEE3C
:100CE30030E715B2D5E4C39FFFE49EFE120C7EC32A
:100CF300E49DFDE49CFC8003120C7E30D507C3E425
:060D03009FFFE49EFE22AA
:0E0D0900C3E49FFFE49EFEE49DFDE49CFC22FB
:0C0D1700E6FC08E6FD08E6FE08E6FF2208
:00000001FF
