:03000000020EF3FA
:0C0EF300787FE4F6D8FD758178020F3A94
:1011C700C0F9A4B0999282F880908883C6A1868ED0
:0211D7007FFF98
:0B121400062F02000201040301240069
:061084007B007A00792FC9
:06108A008B5E8A5F8960A5
:10109000C2B6C2B7E4FFEFC39460502BEF24A0F5B3
:1010A000A0AB5E0560E560AA5F7002055F14F912EF
:1010B0000B5D9011C793F580E4FE0EBE64FC758055
:0910C000FF74102FFF80CFC2A7BE
:0110C9002204
:0D10F90075F00A8485F05D7B117D11E4FF28
:101106008F2F8D308B31855B32855C33855D347BEB
:08111600007A00792F02108A13
:10118B0020A4107533097F647E0012111E30A4FD5C
:06119B007F00227F052207
:0D1206008006BF050812108412118B80F5C0
:0112130022B8
:0F11D900EF146007047007E4F53022753001222F
:1011A100752F1175301175311175321175330D753A
:0311B100340B22DA
:1011B400752F1175301175311175321175330B7529
:0311C400340E22C4
:1010CA00758925758DFD758BFD75CB4CE4F5CA12B6
:1010DA001234D2CAD28ED28CD29CC29FD29ED2AFA6
:0F10EA00D2ACD2A9D2ADD2AAD2A8C28AC28822D1
:100F7F007D06EDC3940A5030ED25E02404F8E6FE1B
:100F8F0008E6FFED25E0240CF8E6FA08E62FFFEA65
:100F9F003EC313FEEF13FFED25E02408F8A6060865
:100FAF00A60774042DFD80CA7D01EDC3940A502E4F
:100FBF00ED25E02406F8E6FE08E6FFED25E0240A1D
:100FCF00F8E6FA08E62FFFEA3EC313FEEF13FFED34
:0E0FDF0025E02408F8A60608A6070D0D80CC14
:010FED0022E1
:100BEB001210CAE4F51EF51F12108412118BEF645C
:0E0BFB000560028F2FE52464016003020D0FD8
:100C0900F55BF55CF55DFBFDFF121106121206E4BA
:100C1900F544754302E543C3940A5067755B11E4D3
:100C2900F55C85435D7B117D117F0A121106E54351
:100C390075F004A4FFE54325E02408F8A6F008A60A
:100C490007AF43E54425E02429F8760008A607E51F
:100C59004325E02408F8E6FE08E6FFE54425E024FC
:100C690035F8A60608A607755B01755C01755D0177
:100C79007B017D017F0A1211060544E54325E0F554
:060C8900438092121206E6
:100C8F00E4F545F546F547F548F549F54AF54BF5D1
:100C9F004C85444DE544D394004062E54425E0245F
:100CAF0035F8E6FC08E6FDFFAE04120B76EF25469D
:100CBF00F546EE3545F545E54425E02435F8E6FEE5
:100CCF0008E6FF2548F548EE3547F547E54425E0AA
:100CDF002429F8E6FC08E6FD120B76EF254AF54AC3
:100CEF00EE3549F549E54425E02429F8E6FE08E606
:0D0CFF00254CF54CEE354BF54B1544809718
:030D0C0075240348
:100D0F00E52464026003020BF3120D6AAD07AC0613
:100D1F00EC120AA3AB28AA27A926A8251208F8AB1C
:100D2F0040AA3FA93EA83D120807120ADC8E298F60
:100D3F002AC3E52A9410E5299400E45009F55BF5E0
:100D4F005C852A5D8006F55BF55CF55DFBFDFF12AA
:0B0D5F001106121206752403020BF3AC
:0B122000209107B2923091FDB29222A3
:100D6A00E4F54EF54FF550F551F55475550212114B
:100D7A0059E4F55BF55C755D017B117D117F1112FC
:100D8A001106121206E4F556F557C3E5579406E51F
:100D9A005694004003020E5F121220E54F6521703F
:100DAA0004E54E652060E3AE20AF217C007D14127D
:100DBA000B88ED64014C70D2C2ACAC54AD55AE5048
:100DCA00AF51120B88ED64014C70770557E55770E7
:100DDA00020556E523FEAD8C7C00E42DF553EC3E6E
:100DEA00F552E58C75F06484F55BE58C75F06484E6
:100DFA0075F00AA4FFE58C75F00A84C39FF55CE5DB
:100E0A008C1210F9121206E58A75F06484F55BE516
:100E1A008A75F0648475F00AA4FFE58A75F00A847D
:100E2A00C39FF55CE58A1210F9121206121172AC10
:100E3A0052AD53E4120AA3120E66121234E4F522DA
:100E4A00F523D2AC0551E5517002055085204E8537
:0B0E5A00214F020D9412122B120ADC33
:010E6500226A
:03000B000211E8F7
:0F11E800C0E00523E52370020522C28FD0E0325C
:03000300020FEEFB
:100FEE00C0E0C0F0C083C082C0D075D000C000C0C9
:100FFE0001C002C003C004C005C006C0071211B470
:10100E007F647E0012111E30B2FD752402752F0012
:10101E00D007D006D005D004D003D002D001D00026
:0B102E00D0D0D082D083D0F0D0E032D0
:030013000210399F
:10103900C0E0C0F0C083C082C0D075D000C000C07D
:1010490001C002C003C004C005C006C0071211A137
:101059007F647E0012111E30B3FD752401752F00C7
:10106900D007D006D005D004D003D002D001D000DB
:0B107900D0D0D082D083D0F0D0E03285
:0300230002113E89
:10113E00C0D075D000C007C298AF99753B008F3CE8
:0B114E00751E00751F01D007D0D032C5
:03002B000211F7C8
:0F11F700C0E0C2CF0521E52170020520D0E03213
:10111E00E4FDFCC3ED9FEC9E5015E4FBFA0BBB0007
:0F112E00010AEB646E4A70F50DBD00010C80E400
:01113D00228F
:06123400E4F58CF58A22AE
:1011590075700A756FD7756E23756D3C75740A7550
:0911690073D775722375713C22E5
:101172008564688563678562668561658570788543
:091182006F77856E76856D75228C
:100E66008F5B8E5A8D598C58AF74AE73AD72AC7160
:100E7600AB70AA6FA96EA86D120807A804A905AAE7
:100E860006AB07AF70AE6FAD6EAC6D120A018F6C1C
:100E96008E6B8D6A8C69AB6CAA6BA96AA869E4FF34
:100EA600FE7D807C3F120803AB70AA6FA96EA86D09
:100EB6001208F88F788E778D768C75AB68AA67A93D
:100EC60066A865AF5BAE5AAD59AC58120803AB6C59
:100ED600AA6BA96AA8691208F8AB68AA67A966A8E6
:0D0EE600651208078F648E638D628C612297
:09122B00AF64AE63AD62AC612258
:10080000020B48E86480F8E933E83360110460F0D3
:10081000ED33EC337009E8FCE9FDEAFEEBFF22045E
:1008200060DED3EB9FEA9EE99DE8C2E78CF0C2F759
:1008300095F0400CE8CCF8E9CDF9EACEFAEBCFFB25
:10084000120B1385D0F05804700320D5B3E8047060
:10085000075002B2D5020B5292D5EC0460F7E4CCFB
:10086000C0E0C398F8603B94186008400DD0E0FBEE
:10087000020B2AE4FBFAC9FC8028E830E406E4C94C
:10088000FBE4CAFCE830E305E4C9CACBFCE8540742
:100890006010F8C3E913F9EA13FAEB13FBEC13FC4D
:1008A000D8F130F52FC3E49CFCEF9BFFEE9AFEEDF0
:1008B00099FDD0E0FBEF4E4D4C701222DB03020B92
:1008C0004FEC2CFCEF33FFEE33FEED33FDED30E764
:1008D000EB020B2AEF2BFFEE3AFEED39FDD0E0FBE9
:1008E00050130BBB0003020B52ED13FDEE13FEEF92
:0808F00013FFEC13FC020B2ABC
:1008F800EC4D6011E8497017ED33EC3304600DE4FA
:10090800FCFFFEFD22E933E8330470F8020B4812BD
:100918000B1358046009E4CC2481500628500902BE
:100928000B52284003020B4FC0E0EB4A7044B980D9
:1009380006D0E0FB020B3EEF4E701CBD8008EBFFBB
:10094800EAFEE9FD80EBE98DF0A4FEE5F00209E19D
:10095800E9CDF9EAFEEBFFEF89F0A4FCE5F0CE89DA
:10096800F0A42EFFE435F0CD89F0A42DFEE435F097
:100978008067EF4E7005BD80D780C3EF8BF0A4ACC5
:10098800F0EE8BF0A42CFCE435F0F8EF8AF0A42C00
:10099800E5F038FCE433CB8DF0A42CFCE5F03BF813
:1009A800EE8AF0A42CFCE5F038F8E433CF89F0A403
:1009B8002CFCE5F038CF3400CE89F0A42FFFE5F009
:1009C8003EFEE433C98DF0A42EFEE5F039CD8AF061
:1009D800A42FFFE5F03EFEE43DFD33D0E0FB5007D9
:1009E8000BBB000F020B52EC2CFCEF33FFEE33FE77
:0609F800ED33FD020B2AA5
:1009FE00020B52EC5D046005E859047003020B48CB
:100A0E00120B13580460F6EC4860F2EC7004FDFE15
:100A1E00FF22C860DB2481C85009C39860025006CB
:100A2E00020B4F9850CAF582E9294B4A7005AB82EA
:100A3E00020B3E75F0007C1A7880C3EF9BEE9AEDA8
:100A4E0099400DC3EF9BFFEE9AFEED99FDE842F043
:100A5E00DC23ACF0D0E0FFD0E0FED0E0FDAB822096
:100A6E00E7101BEB60BAEC2CFCEF33FFEE33FEED20
:100A7E0033FD020B2AE803F830E705C0F075F000ED
:100A8E00EF2FFFEE33FEED33FD40B830E7C280AA04
:100A9E0075F020800E75F010800575F0087D007ED3
:100AAE00007F003392D530D503120BDDEC334010AE
:100ABE00EF33FFEE33FEED33FDEC33FCD5F0ED22DC
:0E0ACE00E5F0247EA2D513CC92E7CDCEFF2218
:100ADC00EDD2E7CD33EC3392D524814006E4FFFE12
:100AEC00FDFC22FCE4CFCECDCC24E0501174FF8071
:100AFC00EDC3CC13CCCD13CDCE13CECF13CF04700E
:070B0C00F030D5DE020BDD25
:100B1300E9D2E7C933E833F892D5EDD2E7CD33EC28
:070B230033FC5002B2D522A1
:100B2A00EC30E7100FBF000C0EBE00080DBD00042C
:100B3A000BEB6014A2D5EB13FCED92E7FD2274FFD8
:100B4A00FCFDFEFF22E480F8A2D574FF13FC7D8031
:030B5A00E480EF45
:100EFF00020BEBE493A3F8E493A34003F68001F213
:100F0F0008DFF48029E493A3F85407240CC8C333F3
:100F1F00C4540F4420C8834004F456800146F6DFC2
:100F2F00E4800B0102040810204080901214E47E2C
:100F3F00019360BCA3FF543F30E509541FFEE493B7
:100F4F00A360010ECF54C025E060A840B8E493A37E
:100F5F00FAE493A3F8E493A3C8C582C8CAC583CAA9
:100F6F00F0A3C8C582C8CAC583CADFE9DEE780BE61
:01121F0000CE
:100B5D00BB010689828A83E0225002E722BBFE0296
:090B6D00E32289828A83E49322C9
:100B7600EF8DF0A4A8F0CF8CF0A428CE8DF0A42E93
:020B8600FE224D
:100B8800BC000BBE0029EF8DF084FFADF022E4CC51
:100B9800F875F008EF2FFFEE33FEEC33FCEE9DEC1A
:100BA800984005FCEE9DFE0FD5F0E9E4CEFD22ED60
:100BB800F8F5F0EE8420D21CFEADF075F008EF2FAA
:100BC800FFED33FD4007985006D5F0F222C398FD9B
:050BD8000FD5F0EA2238
:0E0BDD00C3E49FFFE49EFEE49DFDE49CFC2229
:00000001FF
