:03000000020F5C90
:0C0F5C00787FE4F6D8FD75817E020FA3BB
:1011B300C0F9A4B0999282F880908883C6A1868EE4
:0211C3007FFFAC
:0B120000063D020002010403013C0057
:061033007B007A00793D0C
:061039008B6A8A6B896CD2
:10103F00C2B6C2B7E4FFEFC39460502DEF24A0F502
:10104F00A0AB6A056CE56CAA6B7002056B14F91204
:10105F000B5D25399011B393F580E4FE0EBE64FC51
:0B106F007580FF74102FFF80CDC2A71A
:01107A002253
:10115F008F3D8D3E8B3F8567408568418569427B1A
:08116F00007A00793D021039FD
:1011770020A4107541097F647E001210F230A4FD8F
:061187007F00227F05221B
:0D11F2008006BF050812103312117780F53A
:0111FF0022CD
:0F11C500EF146007047007E4F53E22753E012227
:10118D00753D11753E11753F1175401175410D7508
:03119D00420B22E0
:1011A000753D11753E11753F1175401175410B75F7
:0311B000420E22CA
:1010C300758925758DFD758BFD75CB4CE4F5CA12BD
:1010D3001220D2CAD28ED28CD29CC29FD29ED2AFC1
:0F10E300D2ACD2A9D2ADD2AAD2A8C28AC28822D8
:100CFF00757D00757E06C3E57E940AE57D6480945C
:100D0F00805041AF7EEF25E025E02400F8120C2D36
:100D1F00C000EF25E025E02410F8120C21D00012BE
:100D2F000807E4FBFAF97840120A01E57E25E02571
:100D3F00E02408F8120C3A7404257EF57EE4357D24
:100D4F00F57D80B2757D00757E01C3E57E940AE561
:100D5F007D648094805041AF7EEF25E025E0240430
:100D6F00F8120C2DC000EF25E025E0240CF8120C32
:100D7F0021D000120807E4FBFAF97840120A01E5C6
:100D8F007E25E025E02408F8120C3A7402257EF542
:080D9F007EE4357DF57D80B294
:010DA7002229
:100C46001210C3E4F534F535121033121177EF6440
:100C56000560028F3DC290E53C64016003020CE929
:100C6600F567F568F569FBFDFF12115F1211F27564
:100C76006100756202C3E562940AE5619400506002
:100C8600756711E4F5688562697B117D117F0A122B
:100C9600115F1211F2E4F513F5127511E0751040AB
:100CA600F51BF51A751930751841F52BF52A7529B6
:100CB60080752841F533F532753190753041756789
:100CC600017568017569017B017D017F0A12115F5B
:100CD6001211F2E56225E0F562E56133F561809572
:030CE600753C0357
:100CE900E53C64026003020C4E120DA88E5F8F6012
:060CF900753C03020C4EE5
:0B120C0020B707B29230B7FDB292226B
:100DA800E4F564F565F566F567F56A756B02121189
:100DB8002DE4F56CF56DC3E56D9406E56C94005073
:100DC8007212120CE56565377004E564653660E6F5
:100DD800AE36AF377C007D14120B88ED64014C7081
:100DE800D5C2ACAC6AAD6BAE66AF67120B88ED646A
:100DF800014C702D056DE56D7002056CE53BFEAD8F
:100E08008C7C00E42DF569EC3EF568121146AC685F
:100E1800AD69E4120AA3120ECF121220E4F53AF5D6
:100E28003BD2AC0567E56770020566853664853791
:090E3800658083121217120ADC16
:010E4100228E
:03000B000211D40B
:0F11D400C0E0053BE53B7002053AC28FD0E03228
:0300030002107B6D
:10107B00C0E0C0F0C083C082C0D075D000C000C03B
:10108B0001C002C003C004C005C006C0071211A0F6
:10109B007F0A7E001210F230B2FD753D00D007D0F2
:1010AB0006D005D004D003D002D001D000D0D0D0D0
:0810BB0082D083D0F0D0E032B6
:03001300020FE8F1
:100FE800C0E0C0F0C083C082C0D075D000C000C0CF
:100FF80001C002C003C004C005C006C00712118D9D
:101008007F647E001210F230B3FD753C01753D001F
:10101800D007D006D005D004D003D002D001D0002C
:0B102800D0D0D082D083D0F0D0E032D6
:03002300021112B5
:10111200C0D075D000C007C298AF997543008F4404
:0B112200753400753501D007D0D032C5
:03002B000211E3DC
:0F11E300C0E0C2CF0537E53770020536D0E032E5
:1010F200E4FDFCC3ED9FEC9E5015E4FBFA0BBB0034
:0F110200010AEB646E4A70F50DBD00010C80E42C
:0111110022BB
:06122000E4F58CF58A22C2
:100E4200E4FBFA8F7C900001E57C75F00A84F97569
:100E5200F00AA4FFC3E57C9F2430FF74722BF8A62E
:100E6200070BBB00010AE9700874722BF8E4F680E4
:100E720013897C7C007D0AAF82AE83120B768E834F
:100E82008F8280C4E4F583F5827C007D02AF03AEDD
:100E920002120BDDC3E5829FEE6480F8E583648075
:100EA200985023AF8274722FF8E6F9C3EB9FFF7458
:100EB200712FF8E6FDAC8274722CF8A60574712FBE
:0C0EC200F8A601A380C37B007A007972BF
:010ECE002201
:10112D0075560A7555D775542375533C755A0A75FE
:09113D0059D775582375573C225F
:10114600854A4E85494D85484C85474B85565E8573
:09115600555D85545C85535B2254
:100ECF008F718E708D6F8C6EAF5AAE59AD58AC5707
:100EDF00AB56AA55A954A853120807A804A905AAE6
:100EEF0006AB07AF56AE55AD54AC53120A018F5235
:100EFF008E518D508C4FAB52AA51A950A84FE4FF81
:100F0F00FE7D807C3F120803AB56AA55A954A85307
:100F1F001208F88F5E8E5D8D5C8C5BAB4EAA4DA96F
:100F2F004CA84BAF71AE70AD6FAC6E120803AB52E5
:100F3F00AA51A950A84F1208F8AB4EAA4DA94CA818
:0D0F4F004B1208078F4A8E498D488C4722AF
:09121700AF4AAE49AD48AC4722D4
:10080000020B48E86480F8E933E83360110460F0D3
:10081000ED33EC337009E8FCE9FDEAFEEBFF22045E
:1008200060DED3EB9FEA9EE99DE8C2E78CF0C2F759
:1008300095F0400CE8CCF8E9CDF9EACEFAEBCFFB25
:10084000120B1385D0F05804700320D5B3E8047060
:10085000075002B2D5020B5292D5EC0460F7E4CCFB
:10086000C0E0C398F8603B94186008400DD0E0FBEE
:10087000020B2AE4FBFAC9FC8028E830E406E4C94C
:10088000FBE4CAFCE830E305E4C9CACBFCE8540742
:100890006010F8C3E913F9EA13FAEB13FBEC13FC4D
:1008A000D8F130F52FC3E49CFCEF9BFFEE9AFEEDF0
:1008B00099FDD0E0FBEF4E4D4C701222DB03020B92
:1008C0004FEC2CFCEF33FFEE33FEED33FDED30E764
:1008D000EB020B2AEF2BFFEE3AFEED39FDD0E0FBE9
:1008E00050130BBB0003020B52ED13FDEE13FEEF92
:0808F00013FFEC13FC020B2ABC
:1008F800EC4D6011E8497017ED33EC3304600DE4FA
:10090800FCFFFEFD22E933E8330470F8020B4812BD
:100918000B1358046009E4CC2481500628500902BE
:100928000B52284003020B4FC0E0EB4A7044B980D9
:1009380006D0E0FB020B3EEF4E701CBD8008EBFFBB
:10094800EAFEE9FD80EBE98DF0A4FEE5F00209E19D
:10095800E9CDF9EAFEEBFFEF89F0A4FCE5F0CE89DA
:10096800F0A42EFFE435F0CD89F0A42DFEE435F097
:100978008067EF4E7005BD80D780C3EF8BF0A4ACC5
:10098800F0EE8BF0A42CFCE435F0F8EF8AF0A42C00
:10099800E5F038FCE433CB8DF0A42CFCE5F03BF813
:1009A800EE8AF0A42CFCE5F038F8E433CF89F0A403
:1009B8002CFCE5F038CF3400CE89F0A42FFFE5F009
:1009C8003EFEE433C98DF0A42EFEE5F039CD8AF061
:1009D800A42FFFE5F03EFEE43DFD33D0E0FB5007D9
:1009E8000BBB000F020B52EC2CFCEF33FFEE33FE77
:0609F800ED33FD020B2AA5
:1009FE00020B52EC5D046005E859047003020B48CB
:100A0E00120B13580460F6EC4860F2EC7004FDFE15
:100A1E00FF22C860DB2481C85009C39860025006CB
:100A2E00020B4F9850CAF582E9294B4A7005AB82EA
:100A3E00020B3E75F0007C1A7880C3EF9BEE9AEDA8
:100A4E0099400DC3EF9BFFEE9AFEED99FDE842F043
:100A5E00DC23ACF0D0E0FFD0E0FED0E0FDAB822096
:100A6E00E7101BEB60BAEC2CFCEF33FFEE33FEED20
:100A7E0033FD020B2AE803F830E705C0F075F000ED
:100A8E00EF2FFFEE33FEED33FD40B830E7C280AA04
:100A9E0075F020800E75F010800575F0087D007ED3
:100AAE00007F003392D530D503120C13EC33401077
:100ABE00EF33FFEE33FEED33FDEC33FCD5F0ED22DC
:0E0ACE00E5F0247EA2D513CC92E7CDCEFF2218
:100ADC00EDD2E7CD33EC3392D524814006E4FFFE12
:100AEC00FDFC22FCE4CFCECDCC24E0501174FF8071
:100AFC00EDC3CC13CCCD13CDCE13CECF13CF04700E
:070B0C00F030D5DE020C13EE
:100B1300E9D2E7C933E833F892D5EDD2E7CD33EC28
:070B230033FC5002B2D522A1
:100B2A00EC30E7100FBF000C0EBE00080DBD00042C
:100B3A000BEB6014A2D5EB13FCED92E7FD2274FFD8
:100B4A00FCFDFEFF22E480F8A2D574FF13FC7D8031
:030B5A00E480EF45
:100F6800020C46E493A3F8E493A34003F68001F24D
:100F780008DFF48029E493A3F85407240CC8C3338A
:100F8800C4540F4420C8834004F456800146F6DF59
:100F9800E4800B0102040810204080901200E47ED7
:100FA800019360BCA3FF543F30E509541FFEE4934E
:100FB800A360010ECF54C025E060A840B8E493A315
:100FC800FAE493A3F8E493A3C8C582C8CAC583CA40
:100FD800F0A3C8C582C8CAC583CADFE9DEE780BEF8
:01120B0000E2
:100B5D00BB010689828A83E0225002E722BBFE0296
:090B6D00E32289828A83E49322C9
:100B7600EF8DF0A4A8F0CF8CF0A428CE8DF0A42E93
:020B8600FE224D
:100B8800BC000BBE0029EF8DF084FFADF022E4CC51
:100B9800F875F008EF2FFFEE33FEEC33FCEE9DEC1A
:100BA800984005FCEE9DFE0FD5F0E9E4CEFD22ED60
:100BB800F8F5F0EE8420D21CFEADF075F008EF2FAA
:100BC800FFED33FD4007985006D5F0F222C398FD9B
:050BD8000FD5F0EA2238
:100BDD00C2D5EC30E709B2D5E4C39DFDE49CFCEE33
:100BED0030E715B2D5E4C39FFFE49EFE120B88C318
:100BFD00E49DFDE49CFC8003120B8830D507C3E413
:060C0D009FFFE49EFE22A1
:0E0C1300C3E49FFFE49EFEE49DFDE49CFC22F2
:0C0C2100E6FC08E6FD08E6FE08E6FF22FF
:0D0C2D00E6FB08E6F908E6FA08E6CBF82237
:0C0C3A00ECF608EDF608EEF608EFF622E6
:00000001FF
