:030000000209D51D
:0C09D500787FE4F6D8FD75810F0209045C
:10097D00758925758DFD758BFD1209E1D28ED28C91
:0B098D00D29CC29FD29ED2AFD2AC22FF
:1009B30020B7117F0A7E0012095D20B707B292307B
:0509C300B7FDB2922215
:1009040012097DE4F508F509C2901209B3E50964FA
:1009140001450870F3C2ACAF0B12089D850B9930EA
:0D09240099FDC299D2ACE4F508F50980DB1D
:0300230002099837
:10099800C0D075D000C007C298AF99750A008F0BF8
:0B09A800750800750901D007D0D0329F
:0D09C800476F742069740052455345540078
:10095D00E4FDFCC3ED9FEC9E5015E4FBFA0BBB00D0
:0F096D00010AEB646E4A70F50DBD00010C80E4C9
:01097C002258
:0609E100E4F58CF58A220A
:10089D00BF7224E4FCFD74CF2DF58274093CF58301
:1008AD00E493F5993099FDC2990DBD00010CED64ED
:0C08BD00054C70E20209E1EF6464701960
:1008C900AF8A8F0EAF8AF50F850E993099FDC299BF
:0808D900850F993099FDC299C9
:1008E10022E4FCFD74C82DF58274093CF583E49380
:1008F100F5993099FDC2990DBD00010CED64064CCE
:0209010070E2A2
:0109030022D1
:04093100AB07AA0660
:10093500900001AF03AE02AD82AC83120812EF4EF8
:1009450060117C007D0AAF82AE831208008E838F12
:070955008280E07E007F7A42
:01095C002278
:10080000EF8DF0A4A8F0CF8CF0A428CE8DF0A42E0C
:02081000FE22C6
:10081200C2D5EC30E709B2D5E4C39DFDE49CFCEE01
:1008220030E715B2D5E4C39FFFE49EFE120848C329
:10083200E49DFDE49CFC800312084830D507C3E424
:060842009FFFE49EFE2270
:10084800BC000BBE0029EF8DF084FFADF022E4CC94
:10085800F875F008EF2FFFEE33FEEC33FCEE9DEC5D
:10086800984005FCEE9DFE0FD5F0E9E4CEFD22EDA3
:10087800F8F5F0EE8420D21CFEADF075F008EF2FED
:10088800FFED33FD4007985006D5F0F222C398FDDE
:050898000FD5F0EA227B
:00000001FF
