:03000000020EDD10
:0C0EDD00787FE4F6D8FD758178020F24C0
:1011A400C0F9A4B0999282F880908883C6A1868EF3
:0211B4007FFFBB
:0B11F100062F0200020104030124008D
:06106E007B007A00792FDF
:061074008B5E8A5F8960BB
:10107A00C2B6C2B7E4FFEFC39460502BEF24A0F5C9
:10108A00A0AB5E0560E560AA5F7002055F14F91205
:10109A000B5D9011A493F580E4FE0EBE64FC75808E
:0910AA00FF74102FFF80CFC2A7D4
:0110B300221A
:101150008F2F8D308B31855B32855C33855D347BA1
:08116000007A00792F021074DF
:1011680020A4107533097F647E001210E330A4FDBB
:061178007F00227F05222A
:0D11E3008006BF050812106E12116880F51D
:0111F00022DC
:0F11B600EF146007047007E4F530227530012252
:10117E00752F1175301175311175321175330D755D
:03118E00340B22FD
:10119100752F1175301175311175321175330B754C
:0311A100340E22E7
:1010B400758925758DFD758BFD75CB4CE4F5CA12CC
:1010C4001211D2CAD28ED28CD29CC29FD29ED2AFDF
:0F10D400D2ACD2A9D2ADD2AAD2A8C28AC28822E7
:100F69007D06EDC3940A5030ED25E02404F8E6FE31
:100F790008E6FFED25E0240CF8E6FA08E62FFFEA7B
:100F89003EC313FEEF13FFED25E02408F8A606087B
:100F9900A60774042DFD80CA7D01EDC3940A502E65
:100FA900ED25E02406F8E6FE08E6FFED25E0240A33
:100FB900F8E6FA08E62FFFEA3EC313FEEF13FFED4A
:0E0FC90025E02408F8A60608A6070D0D80CC2A
:010FD70022F7
:100BEB001210B4E4F51EF51F12106E121168EF64AB
:0E0BFB000560028F2FE52464016003020D0ED9
:100C0900F55BF55CF55DFBFDFF1211501211E3E494
:100C1900F544754302E543C3940A5066755B11E4D4
:100C2900F55C85435D7B117D117F0A12115012110C
:100C3900E3120D69E54325E02408F8A60608A6078E
:100C4900AF43E54425E02429F8760008A607E543E3
:100C590025E02408F8E6FE08E6FFE54425E024350A
:100C6900F8A60608A607755B01755C01755D017B31
:100C7900017D017F0A1211500544E54325E0F54342
:050C890080931211E34D
:100C8E00E4F545F546F547F548F549F54AF54BF5D2
:100C9E004C85444DE544D394004062E54425E02460
:100CAE0035F8E6FC08E6FDFFAE04120B76EF25469E
:100CBE00F546EE3545F545E54425E02435F8E6FEE6
:100CCE0008E6FF2548F548EE3547F547E54425E0AB
:100CDE002429F8E6FC08E6FD120B76EF254AF54AC4
:100CEE00EE3549F549E54425E02429F8E6FE08E607
:0D0CFE00254CF54CEE354BF54B1544809719
:030D0B0075240349
:100D0E00E52464026003020BF3120D69AD07AC0615
:100D1E00EC120AA3AB28AA27A926A8251208F8AB1D
:100D2E0040AA3FA93EA83D120807120ADC8E298F61
:100D3E002AC3E52A9410E5299400E45009F55BF5E1
:100D4E005C852A5D8006F55BF55CF55DFBFDFF12AB
:0B0D5E0011501211E3752403020BF387
:0B11FD00209107B2923091FDB29222C7
:100D6900E4F54EF54FF550F551F55475550212114C
:100D79001EE4F556F557C3E5579406E55694005019
:100D8900721211FDE54F65217004E54E652060E69C
:100D9900AE20AF217C007D14120B88ED64014C70EC
:100DA900D5C2ACAC54AD55AE50AF51120B88ED6401
:100DB900014C702D0557E55770020556E523FEAD28
:100DC9008C7C00E42DF553EC3EF552121137AC52F0
:100DD900AD53E4120AA3120E50121211E4F522F5D2
:100DE90023D2AC0551E5517002055085204E85216D
:100DF9004F8083121208120ADC8E528F537C007DB9
:100E090064120B88AB07AE52AF537C007D0A120BFC
:100E190088E58C75F0648475F00AA4FEC3EF9EF52D
:100E29005C8B5BAF57C007AE52AF537C007D0A1293
:100E39000B888D5DD0077B107D101211501211E3C4
:060E4900121208120ADC7F
:010E4F002280
:03000B000211C51A
:0F11C500C0E00523E52370020522C28FD0E0327F
:03000300020FD811
:100FD800C0E0C0F0C083C082C0D075D000C000C0DF
:100FE80001C002C003C004C005C006C007121191A9
:100FF8007F647E001210E330B2FD752402752F0065
:10100800D007D006D005D004D003D002D001D0003C
:0B101800D0D0D082D083D0F0D0E032E6
:03001300021023B5
:10102300C0E0C0F0C083C082C0D075D000C000C093
:1010330001C002C003C004C005C006C00712117E70
:101043007F647E001210E330B3FD752401752F0019
:10105300D007D006D005D004D003D002D001D000F1
:0B106300D0D0D082D083D0F0D0E0329B
:03002300021103C4
:10110300C0D075D000C007C298AF99753B008F3C23
:0B111300751E00751F01D007D0D03200
:03002B000211D4EB
:0F11D400C0E0C2CF0521E52170020520D0E03236
:1010E300E4FDFCC3ED9FEC9E5015E4FBFA0BBB0043
:0F10F300010AEB646E4A70F50DBD00010C80E43C
:0111020022CA
:06121100E4F58CF58A22D1
:10111E0075700A756FD7756E23756D3C75740A758B
:09112E0073D775722375713C2220
:10113700856468856367856266856165857078857E
:091147006F77856E76856D7522C7
:100E50008F5B8E5A8D598C58AF74AE73AD72AC7176
:100E6000AB70AA6FA96EA86D120807A804A905AAFD
:100E700006AB07AF70AE6FAD6EAC6D120A018F6C32
:100E80008E6B8D6A8C69AB6CAA6BA96AA869E4FF4A
:100E9000FE7D807C3F120803AB70AA6FA96EA86D1F
:100EA0001208F88F788E778D768C75AB68AA67A953
:100EB00066A865AF5BAE5AAD59AC58120803AB6C6F
:100EC000AA6BA96AA8691208F8AB68AA67A966A8FC
:0D0ED000651208078F648E638D628C6122AD
:09120800AF64AE63AD62AC61227B
:10080000020B48E86480F8E933E83360110460F0D3
:10081000ED33EC337009E8FCE9FDEAFEEBFF22045E
:1008200060DED3EB9FEA9EE99DE8C2E78CF0C2F759
:1008300095F0400CE8CCF8E9CDF9EACEFAEBCFFB25
:10084000120B1385D0F05804700320D5B3E8047060
:10085000075002B2D5020B5292D5EC0460F7E4CCFB
:10086000C0E0C398F8603B94186008400DD0E0FBEE
:10087000020B2AE4FBFAC9FC8028E830E406E4C94C
:10088000FBE4CAFCE830E305E4C9CACBFCE8540742
:100890006010F8C3E913F9EA13FAEB13FBEC13FC4D
:1008A000D8F130F52FC3E49CFCEF9BFFEE9AFEEDF0
:1008B00099FDD0E0FBEF4E4D4C701222DB03020B92
:1008C0004FEC2CFCEF33FFEE33FEED33FDED30E764
:1008D000EB020B2AEF2BFFEE3AFEED39FDD0E0FBE9
:1008E00050130BBB0003020B52ED13FDEE13FEEF92
:0808F00013FFEC13FC020B2ABC
:1008F800EC4D6011E8497017ED33EC3304600DE4FA
:10090800FCFFFEFD22E933E8330470F8020B4812BD
:100918000B1358046009E4CC2481500628500902BE
:100928000B52284003020B4FC0E0EB4A7044B980D9
:1009380006D0E0FB020B3EEF4E701CBD8008EBFFBB
:10094800EAFEE9FD80EBE98DF0A4FEE5F00209E19D
:10095800E9CDF9EAFEEBFFEF89F0A4FCE5F0CE89DA
:10096800F0A42EFFE435F0CD89F0A42DFEE435F097
:100978008067EF4E7005BD80D780C3EF8BF0A4ACC5
:10098800F0EE8BF0A42CFCE435F0F8EF8AF0A42C00
:10099800E5F038FCE433CB8DF0A42CFCE5F03BF813
:1009A800EE8AF0A42CFCE5F038F8E433CF89F0A403
:1009B8002CFCE5F038CF3400CE89F0A42FFFE5F009
:1009C8003EFEE433C98DF0A42EFEE5F039CD8AF061
:1009D800A42FFFE5F03EFEE43DFD33D0E0FB5007D9
:1009E8000BBB000F020B52EC2CFCEF33FFEE33FE77
:0609F800ED33FD020B2AA5
:1009FE00020B52EC5D046005E859047003020B48CB
:100A0E00120B13580460F6EC4860F2EC7004FDFE15
:100A1E00FF22C860DB2481C85009C39860025006CB
:100A2E00020B4F9850CAF582E9294B4A7005AB82EA
:100A3E00020B3E75F0007C1A7880C3EF9BEE9AEDA8
:100A4E0099400DC3EF9BFFEE9AFEED99FDE842F043
:100A5E00DC23ACF0D0E0FFD0E0FED0E0FDAB822096
:100A6E00E7101BEB60BAEC2CFCEF33FFEE33FEED20
:100A7E0033FD020B2AE803F830E705C0F075F000ED
:100A8E00EF2FFFEE33FEED33FD40B830E7C280AA04
:100A9E0075F020800E75F010800575F0087D007ED3
:100AAE00007F003392D530D503120BDDEC334010AE
:100ABE00EF33FFEE33FEED33FDEC33FCD5F0ED22DC
:0E0ACE00E5F0247EA2D513CC92E7CDCEFF2218
:100ADC00EDD2E7CD33EC3392D524814006E4FFFE12
:100AEC00FDFC22FCE4CFCECDCC24E0501174FF8071
:100AFC00EDC3CC13CCCD13CDCE13CECF13CF04700E
:070B0C00F030D5DE020BDD25
:100B1300E9D2E7C933E833F892D5EDD2E7CD33EC28
:070B230033FC5002B2D522A1
:100B2A00EC30E7100FBF000C0EBE00080DBD00042C
:100B3A000BEB6014A2D5EB13FCED92E7FD2274FFD8
:100B4A00FCFDFEFF22E480F8A2D574FF13FC7D8031
:030B5A00E480EF45
:100EE900020BEBE493A3F8E493A34003F68001F229
:100EF90008DFF48029E493A3F85407240CC8C3330A
:100F0900C4540F4420C8834004F456800146F6DFD8
:100F1900E4800B01020408102040809011F1E47E66
:100F2900019360BCA3FF543F30E509541FFEE493CD
:100F3900A360010ECF54C025E060A840B8E493A394
:100F4900FAE493A3F8E493A3C8C582C8CAC583CABF
:100F5900F0A3C8C582C8CAC583CADFE9DEE780BE77
:0111FC0000F2
:100B5D00BB010689828A83E0225002E722BBFE0296
:090B6D00E32289828A83E49322C9
:100B7600EF8DF0A4A8F0CF8CF0A428CE8DF0A42E93
:020B8600FE224D
:100B8800BC000BBE0029EF8DF084FFADF022E4CC51
:100B9800F875F008EF2FFFEE33FEEC33FCEE9DEC1A
:100BA800984005FCEE9DFE0FD5F0E9E4CEFD22ED60
:100BB800F8F5F0EE8420D21CFEADF075F008EF2FAA
:100BC800FFED33FD4007985006D5F0F222C398FD9B
:050BD8000FD5F0EA2238
:0E0BDD00C3E49FFFE49EFEE49DFDE49CFC2229
:00000001FF
