:030000000210EA01
:0C10EA00787FE4F6D8FD758171021131A9
:100F2B005448303A20005448302A3235363A2000A3
:100F3B005448303C3C3A2000544C303A2000205668
:100F4B002000206D6F6465200020505554205041C7
:100F5B005045522A0020616E64207072696E7420B5
:100F6B0063007461626C655B696E697456616C7564
:100F7B00655D3A20002023524553554C54232000E5
:100F8B0073756D3A200066696C7465723A200020A7
:100F9B004F564552464C4F57200020737461727464
:100FAB00206D6F64652000207374617274200020C3
:100FBB006465627567206D6F6465200020646562EF
:050FCB00756720200005
:0313F400012200D3
:1012E500758925758DFD758BFD75CB4CE4F5CA1299
:1012F50013EED2CAD28ED28CD29CC29FD29ED2AFCE
:0F130500D2ACD2A9D2ADD2AAD2A8C28AD28822A3
:100D23001212E5E4F51CF51DC290E51D6401451C96
:100D33006003020DB9C2ACAF241212A9E52464709A
:100D4300452370417BFF7A0F792B121381AF8C7E81
:100D5300001213D27BFF7A0F7931121381AF8CEF1C
:100D63007F00FE1213D27BFF7A0F793B1213817F30
:100D7300007E001213D27BFF7A0F7943121381AFE7
:100D83008A7E008027E5246474452370227BFF7AE2
:100D93000F7949121381A280E4FE33FF1213D27B31
:100DA300FF7A0F794D121381AF227E001213D2D234
:0C0DB300ACE4F51CF51DE522640170772E
:100DBF00F529752A02C3E52A940AE529940050649F
:100DCF007BFF7A0F7954121381AF2AAE291213D2F7
:100DDF007BFF7A0F7960121381C2ACAF241212A974
:100DEF00E52464634523702B120E5CE52A25E0246D
:100DFF0008F8A60608A6077BFF7A0F796D121381F4
:100E0F00E52A25E02408F8E6FE08E6FF1213D2D201
:100E1F00AC8004D2AC80C2E52A25E0F52AE529335F
:070E2F00F5298091752203F3
:100E3600E52264026003020D2B120E5C8E278F28BA
:100E46007BFF7A0F7980121381AF28AE271213D257
:060E5600752203020D2BC2
:0B13C70020B707B29230B7FDB29222AF
:100E5C00E4F52BF52CF52DF52EF531753202121328
:100E6C004FE4F537F538C3E5389406E53794004080
:100E7C0003020F241213C7E52C651F7004E52B65C4
:100E8C001E60E3AE1EAF1F7C007D14120C7EED6461
:100E9C00014C70D2C2ACAC31AD32AE2DAF2E120CB7
:100EAC007EED64014C705E0538E53870020537E55F
:100EBC0021FEAD8C7C00E42DF530EC3EF52FFCAD25
:100ECC0030E4120AA38F368E358D348C337BFF7A47
:100EDC000F798B121381AF30AE2F1213D27BFF7AA6
:100EEC000F79911213811213DD120ADC1213D21234
:100EFC001368AF36AE35AD34AC3312105D1213EE51
:100F0C00E4F520F521D2AC052EE52E7002052D85D9
:0E0F1C001E2B851F2C020E721213DD120ADC32
:010F2A0022A4
:03000B0002121DC1
:10121D00C0E0C0F0C083C082C0D075D000C000C097
:10122D0001C002C003C004C005C006C0077BFF7A21
:10123D000F799A1213810521E52170020520C28FC5
:10124D00D007D006D005D004D003D002D001D000F5
:0B125D00D0D0D082D083D0F0D0E0329F
:0300030002117671
:10117600C0E0C0F0C083C082C0D075D000C000C03F
:1011860001C002C003C004C005C006C0077F0A7EB6
:10119600001213147BFF7A0F79A512138130B2FD6A
:1011A6007522027BFF7A0F79B2121381D007D0061F
:1011B600D005D004D003D002D001D000D0D0D08248
:0711C600D083D0F0D0E0322D
:030013000211CD0A
:1011CD00C0E0C0F0C083C082C0D075D000C000C0E8
:1011DD0001C002C003C004C005C006C0077BFF7A72
:1011ED000F79BA12138130B3FD7522017BFF7A0F8F
:1011FD0079C7121381D007D006D005D004D003D003
:10120D0002D001D000D0D0D082D083D0F0D0E03247
:0300230002133491
:10133400C0D075D000C007C298AF997523008F2420
:0B134400751C00751D01D007D0D032D1
:03002B000213AB12
:0F13AB00C0E0C2CF051FE51F7002051ED0E03263
:0D13BA005245534554200070332E3720005B
:10131400E4FDFCC3ED9FEC9E5015E4FBFA0BBB000F
:0F132400010AEB646E4A70F50DBD00010C80E408
:011333002297
:0613EE00E4F58CF58A22F3
:1012A9008F2BE52BB4720C7BFF7A1379BA12138159
:1012B9000213EEE52BB4640BAF8C7E001213D2AF90
:1012C9008A8013E52BB465137BFF7A1379C1121356
:0C12D90081E5B06407FF7E001213D222F2
:0B13D200120FD01213817F200213E6DF
:100FD000E4FBFA8F43900001E54375F00A84F9754C
:100FE000F00AA4FFC3E5439F2430FF74392BF8A611
:100FF000070BBB00010AE9700874392BF8E4F6808E
:101000001389437C007D0AAF82AE83120C6C8E8301
:101010008F8280C4E4F583F5827C007D02AF03AE4D
:1010200002120CD3C3E5829FEE6480F8E5836480EE
:10103000985023AF8274392FF8E6F9C3EB9FFF7401
:10104000382FF8E6FDAC8274392CF8A60574382FD9
:0C105000F8A601A380C37B007A00793968
:01105C002271
:0813E6008F993099FDC2992294
:10138100120C536010F5993099FDC299740129F935
:06139100E43AFA80EB22B1
:1013970040533333404CCCCD4046666640333333FD
:0413A700402CCCCD3D
:10134F0075530A7552D775512375503C75570A75E9
:09135F0056D775552375543C2244
:1013680085474B85464A85454985444885535B856D
:09137800525A8551598550582242
:10105D008F3C8E3B8D3A8C39AF57AE56AD55AC5457
:10106D00AB53AA52A951A850120807A804A905AA62
:10107D0006AB07AF53AE52AD51AC50120A018F4FB4
:10108D008E4E8D4D8C4CAB4FAA4EA94DA84CE4FF06
:10109D00FE7D807C3F120803AB53AA52A951A85084
:1010AD001208F88F5B8E5A8D598C58AB4BAA4AA9F2
:1010BD0049A848AF3CAE3BAD3AAC39120803AB4F33
:1010CD00AA4EA94DA84C1208F8AB4BAA4AA949A89B
:0D10DD00481208078F478E468D458C44222F
:0913DD00AF47AE46AD45AC442219
:10126800785C7C007D007BFF7A1379977E007F1481
:10127800120C2D12134FE4F570F571121368E57115
:1012880025E025E0245CF8120D1712105D0571E5C4
:101298007170020570C39405E5706480948040DB2A
:0112A8002223
:10080000020B48E86480F8E933E83360110460F0D3
:10081000ED33EC337009E8FCE9FDEAFEEBFF22045E
:1008200060DED3EB9FEA9EE99DE8C2E78CF0C2F759
:1008300095F0400CE8CCF8E9CDF9EACEFAEBCFFB25
:10084000120B1385D0F05804700320D5B3E8047060
:10085000075002B2D5020B5292D5EC0460F7E4CCFB
:10086000C0E0C398F8603B94186008400DD0E0FBEE
:10087000020B2AE4FBFAC9FC8028E830E406E4C94C
:10088000FBE4CAFCE830E305E4C9CACBFCE8540742
:100890006010F8C3E913F9EA13FAEB13FBEC13FC4D
:1008A000D8F130F52FC3E49CFCEF9BFFEE9AFEEDF0
:1008B00099FDD0E0FBEF4E4D4C701222DB03020B92
:1008C0004FEC2CFCEF33FFEE33FEED33FDED30E764
:1008D000EB020B2AEF2BFFEE3AFEED39FDD0E0FBE9
:1008E00050130BBB0003020B52ED13FDEE13FEEF92
:0808F00013FFEC13FC020B2ABC
:1008F800EC4D6011E8497017ED33EC3304600DE4FA
:10090800FCFFFEFD22E933E8330470F8020B4812BD
:100918000B1358046009E4CC2481500628500902BE
:100928000B52284003020B4FC0E0EB4A7044B980D9
:1009380006D0E0FB020B3EEF4E701CBD8008EBFFBB
:10094800EAFEE9FD80EBE98DF0A4FEE5F00209E19D
:10095800E9CDF9EAFEEBFFEF89F0A4FCE5F0CE89DA
:10096800F0A42EFFE435F0CD89F0A42DFEE435F097
:100978008067EF4E7005BD80D780C3EF8BF0A4ACC5
:10098800F0EE8BF0A42CFCE435F0F8EF8AF0A42C00
:10099800E5F038FCE433CB8DF0A42CFCE5F03BF813
:1009A800EE8AF0A42CFCE5F038F8E433CF89F0A403
:1009B8002CFCE5F038CF3400CE89F0A42FFFE5F009
:1009C8003EFEE433C98DF0A42EFEE5F039CD8AF061
:1009D800A42FFFE5F03EFEE43DFD33D0E0FB5007D9
:1009E8000BBB000F020B52EC2CFCEF33FFEE33FE77
:0609F800ED33FD020B2AA5
:1009FE00020B52EC5D046005E859047003020B48CB
:100A0E00120B13580460F6EC4860F2EC7004FDFE15
:100A1E00FF22C860DB2481C85009C39860025006CB
:100A2E00020B4F9850CAF582E9294B4A7005AB82EA
:100A3E00020B3E75F0007C1A7880C3EF9BEE9AEDA8
:100A4E0099400DC3EF9BFFEE9AFEED99FDE842F043
:100A5E00DC23ACF0D0E0FFD0E0FED0E0FDAB822096
:100A6E00E7101BEB60BAEC2CFCEF33FFEE33FEED20
:100A7E0033FD020B2AE803F830E705C0F075F000ED
:100A8E00EF2FFFEE33FEED33FD40B830E7C280AA04
:100A9E0075F020800E75F010800575F0087D007ED3
:100AAE00007F003392D530D503120D09EC33401080
:100ABE00EF33FFEE33FEED33FDEC33FCD5F0ED22DC
:0E0ACE00E5F0247EA2D513CC92E7CDCEFF2218
:100ADC00EDD2E7CD33EC3392D524814006E4FFFE12
:100AEC00FDFC22FCE4CFCECDCC24E0501174FF8071
:100AFC00EDC3CC13CCCD13CDCE13CECF13CF04700E
:070B0C00F030D5DE020D09F7
:100B1300E9D2E7C933E833F892D5EDD2E7CD33EC28
:070B230033FC5002B2D522A1
:100B2A00EC30E7100FBF000C0EBE00080DBD00042C
:100B3A000BEB6014A2D5EB13FCED92E7FD2274FFD8
:100B4A00FCFDFEFF22E480F8A2D574FF13FC7D8031
:030B5A00E480EF45
:1010F600020D23E493A3F8E493A34003F68001F2E0
:1011060008DFF48029E493A3F85407240CC8C333FA
:10111600C4540F4420C8834004F456800146F6DFC9
:10112600E4800B01020408102040809013F4E47E52
:10113600019360BCA3FF543F30E509541FFEE493BE
:10114600A360010ECF54C025E060A840B8E493A385
:10115600FAE493A3F8E493A3C8C582C8CAC583CAB0
:10116600F0A3C8C582C8CAC583CADFE9DEE780BE68
:0113F70000F5
:100B5D00E709F608DFFA8046E709F208DFFA803E7A
:100B6D0088828C83E709F0A3DFFA8032E309F60867
:100B7D00DFFA8078E309F208DFFA807088828C83CF
:100B8D00E309F0A3DFFA806489828A83E0A3F60883
:100B9D00DFFA805889828A83E0A3F208DFFA804C5D
:100BAD0080D280FA80C680D4806980F28033801034
:100BBD0080A680EA809A80A880DA80E280CA80339D
:100BCD0089828A83ECFAE493A3C8C582C8CCC58315
:100BDD00CCF0A3C8C582C8CCC583CCDFE9DEE780E5
:100BED000D89828A83E493A3F608DFF9ECFAA9F064
:100BFD00EDFB2289828A83ECFAE0A3C8C582C8CCBA
:100C0D00C583CCF0A3C8C582C8CCC583CCDFEADED2
:100C1D00E880DB89828A83E493A3F208DFF980CC34
:100C2D0088F0EF60010E4E60C388F0ED2402B4042D
:100C3D000050B9F582EB2402B4040050AF232345D4
:060C4D008223900BAD7341
:100C5300BB010689828A83E0225002E722BBFE029F
:090C6300E32289828A83E49322D2
:100C6C00EF8DF0A4A8F0CF8CF0A428CE8DF0A42E9C
:020C7C00FE2256
:100C7E00BC000BBE0029EF8DF084FFADF022E4CC5A
:100C8E00F875F008EF2FFFEE33FEEC33FCEE9DEC23
:100C9E00984005FCEE9DFE0FD5F0E9E4CEFD22ED69
:100CAE00F8F5F0EE8420D21CFEADF075F008EF2FB3
:100CBE00FFED33FD4007985006D5F0F222C398FDA4
:050CCE000FD5F0EA2241
:100CD300C2D5EC30E709B2D5E4C39DFDE49CFCEE3C
:100CE30030E715B2D5E4C39FFFE49EFE120C7EC32A
:100CF300E49DFDE49CFC8003120C7E30D507C3E425
:060D03009FFFE49EFE22AA
:0E0D0900C3E49FFFE49EFEE49DFDE49CFC22FB
:0C0D1700E6FC08E6FD08E6FE08E6FF2208
:00000001FF
