:03000000020F628A
:0C0F6200787FE4F6D8FD75817E020FA9AF
:1011B300C0F9A4B0999282F880908883C6A1868EE4
:0211C3007FFFAC
:0B11F200063D020002010403013C0066
:061081008B6A8A6B896C8A
:10108700C2B6C2B7E4FFEFC39460502DEF24A0F5BA
:10109700A0AB6A056CE56CAA6B7002056B14F912BC
:1010A7000B5D25399011B393F580E4FE0EBE64FC09
:0B10B7007580FF74102FFF80CDC2A7D2
:0110C200220B
:10115F008F3D8D3E8B3F8567408568418569427B1A
:08116F00007A00793D021081B5
:1011770020A4107541097F647E001210F230A4FD8F
:061187007F00227F05221B
:0A11FE008003BF050512117780F889
:0112080022C3
:0F11C500EF146007047007E4F53E22753E012227
:10118D00753D11753E11753F1175401175410D7508
:03119D00420B22E0
:1011A000753D11753E11753F1175401175410B75F7
:0311B000420E22CA
:1010C300758925758DFD758BFD75CB4CE4F5CA12BD
:1010D300121DD2CAD28ED28CD29CC29FD29ED2AFC4
:0F10E300D2ACD2A9D2ADD2AAD2A8C28AC28822D8
:100D0500757D00757E06C3E57E940AE57D64809455
:100D1500805041AF7EEF25E025E02400F8120C2D30
:100D2500C000EF25E025E02410F8120C21D00012B8
:100D35000807E4FBFAF97840120A01E57E25E0256B
:100D4500E02408F8120C3A7404257EF57EE4357D1E
:100D5500F57D80B2757D00757E01C3E57E940AE55B
:100D65007D648094805041AF7EEF25E025E024042A
:100D7500F8120C2DC000EF25E025E0240CF8120C2C
:100D850021D000120807E4FBFAF97840120A01E5C0
:100D95007E25E025E02408F8120C3A7402257EF53C
:080DA5007EE4357DF57D80B28E
:010DAD002223
:100C46001210C3E4F534F5357B007A00793D1210B5
:100C560081121177EF640560028F3DC290E53C6416
:060C6600016003020CEF27
:100C6C00F567F568F569FBFDFF12115F1211FE7552
:100C7C006100756202C3E562940AE56194005060FC
:100C8C00756711E4F5688562697B117D117F0A1225
:100C9C00115F1211FEE4F513F5127511E075104099
:100CAC00F51BF51A751930751841F52BF52A7529B0
:100CBC0080752841F533F532753190753041756783
:100CCC00017568017569017B017D017F0A12115F55
:100CDC001211FEE56225E0F562E56133F561809560
:030CEC00753C0351
:100CEF00E53C64026003020C4E120DAE8E5F8F6006
:060CFF00753C03020C4EDF
:0B12090020B707B29230B7FDB292226E
:100DAE00E4F564F565F566F567F56A756B02121183
:100DBE002DE4F56CF56DC3E56D9406E56C9400506D
:100DCE0072121209E56565377004E564653660E6F2
:100DDE00AE36AF377C007D14120B88ED64014C707B
:100DEE00D5C2ACAC6AAD6BAE66AF67120B88ED6464
:100DFE00014C702D056DE56D7002056CE53BFEAD89
:100E0E008C7C00E42DF569EC3EF568121146AC6859
:100E1E00AD69E4120AA3120ED512121DE4F53AF5CD
:100E2E003BD2AC0567E5677002056685366485378B
:090E3E00658083121214120ADC13
:010E47002288
:03000B000211D40B
:0F11D400C0E0053BE53B7002053AC28FD0E03228
:03000300021039AF
:10103900C0E0C0F0C083C082C0D075D000C000C07D
:1010490001C002C003C004C005C006C0071211A038
:101059007F0A7E001210F230B2FD753D00D007D034
:1010690006D005D004D003D002D001D000D0D0D012
:0810790082D083D0F0D0E032F8
:03001300020FEEEB
:100FEE00C0E0C0F0C083C082C0D075D000C000C0C9
:100FFE0001C002C003C004C005C006C00712118D97
:10100E007F0A7E001210F230B3FD753C01753D0073
:10101E00D007D006D005D004D003D002D001D00026
:0B102E00D0D0D082D083D0F0D0E032D0
:03002300021112B5
:10111200C0D075D000C007C298AF997543008F4404
:0B112200753400753501D007D0D032C5
:03002B000211E3DC
:0F11E300C0E0C2CF0537E53770020536D0E032E5
:1010F200E4FDFCC3ED9FEC9E5015E4FBFA0BBB0034
:0F110200010AEB646E4A70F50DBD00010C80E42C
:0111110022BB
:06121D00E4F58CF58A22C5
:100E4800E4FBFA8F7C900001E57C75F00A84F97563
:100E5800F00AA4FFC3E57C9F2430FF74722BF8A628
:100E6800070BBB00010AE9700874722BF8E4F680DE
:100E780013897C7C007D0AAF82AE83120B768E8349
:100E88008F8280C4E4F583F5827C007D02AF03AED7
:100E980002120BDDC3E5829FEE6480F8E58364806F
:100EA800985023AF8274722FF8E6F9C3EB9FFF7452
:100EB800712FF8E6FDAC8274722CF8A60574712FB8
:0C0EC800F8A601A380C37B007A007972B9
:010ED40022FB
:10112D0075560A7555D775542375533C755A0A75FE
:09113D0059D775582375573C225F
:10114600854A4E85494D85484C85474B85565E8573
:09115600555D85545C85535B2254
:100ED5008F718E708D6F8C6EAF5AAE59AD58AC5701
:100EE500AB56AA55A954A853120807A804A905AAE0
:100EF50006AB07AF56AE55AD54AC53120A018F522F
:100F05008E518D508C4FAB52AA51A950A84FE4FF7A
:100F1500FE7D807C3F120803AB56AA55A954A85301
:100F25001208F88F5E8E5D8D5C8C5BAB4EAA4DA969
:100F35004CA84BAF71AE70AD6FAC6E120803AB52DF
:100F4500AA51A950A84F1208F8AB4EAA4DA94CA812
:0D0F55004B1208078F4A8E498D488C4722A9
:09121400AF4AAE49AD48AC4722D7
:10080000020B48E86480F8E933E83360110460F0D3
:10081000ED33EC337009E8FCE9FDEAFEEBFF22045E
:1008200060DED3EB9FEA9EE99DE8C2E78CF0C2F759
:1008300095F0400CE8CCF8E9CDF9EACEFAEBCFFB25
:10084000120B1385D0F05804700320D5B3E8047060
:10085000075002B2D5020B5292D5EC0460F7E4CCFB
:10086000C0E0C398F8603B94186008400DD0E0FBEE
:10087000020B2AE4FBFAC9FC8028E830E406E4C94C
:10088000FBE4CAFCE830E305E4C9CACBFCE8540742
:100890006010F8C3E913F9EA13FAEB13FBEC13FC4D
:1008A000D8F130F52FC3E49CFCEF9BFFEE9AFEEDF0
:1008B00099FDD0E0FBEF4E4D4C701222DB03020B92
:1008C0004FEC2CFCEF33FFEE33FEED33FDED30E764
:1008D000EB020B2AEF2BFFEE3AFEED39FDD0E0FBE9
:1008E00050130BBB0003020B52ED13FDEE13FEEF92
:0808F00013FFEC13FC020B2ABC
:1008F800EC4D6011E8497017ED33EC3304600DE4FA
:10090800FCFFFEFD22E933E8330470F8020B4812BD
:100918000B1358046009E4CC2481500628500902BE
:100928000B52284003020B4FC0E0EB4A7044B980D9
:1009380006D0E0FB020B3EEF4E701CBD8008EBFFBB
:10094800EAFEE9FD80EBE98DF0A4FEE5F00209E19D
:10095800E9CDF9EAFEEBFFEF89F0A4FCE5F0CE89DA
:10096800F0A42EFFE435F0CD89F0A42DFEE435F097
:100978008067EF4E7005BD80D780C3EF8BF0A4ACC5
:10098800F0EE8BF0A42CFCE435F0F8EF8AF0A42C00
:10099800E5F038FCE433CB8DF0A42CFCE5F03BF813
:1009A800EE8AF0A42CFCE5F038F8E433CF89F0A403
:1009B8002CFCE5F038CF3400CE89F0A42FFFE5F009
:1009C8003EFEE433C98DF0A42EFEE5F039CD8AF061
:1009D800A42FFFE5F03EFEE43DFD33D0E0FB5007D9
:1009E8000BBB000F020B52EC2CFCEF33FFEE33FE77
:0609F800ED33FD020B2AA5
:1009FE00020B52EC5D046005E859047003020B48CB
:100A0E00120B13580460F6EC4860F2EC7004FDFE15
:100A1E00FF22C860DB2481C85009C39860025006CB
:100A2E00020B4F9850CAF582E9294B4A7005AB82EA
:100A3E00020B3E75F0007C1A7880C3EF9BEE9AEDA8
:100A4E0099400DC3EF9BFFEE9AFEED99FDE842F043
:100A5E00DC23ACF0D0E0FFD0E0FED0E0FDAB822096
:100A6E00E7101BEB60BAEC2CFCEF33FFEE33FEED20
:100A7E0033FD020B2AE803F830E705C0F075F000ED
:100A8E00EF2FFFEE33FEED33FD40B830E7C280AA04
:100A9E0075F020800E75F010800575F0087D007ED3
:100AAE00007F003392D530D503120C13EC33401077
:100ABE00EF33FFEE33FEED33FDEC33FCD5F0ED22DC
:0E0ACE00E5F0247EA2D513CC92E7CDCEFF2218
:100ADC00EDD2E7CD33EC3392D524814006E4FFFE12
:100AEC00FDFC22FCE4CFCECDCC24E0501174FF8071
:100AFC00EDC3CC13CCCD13CDCE13CECF13CF04700E
:070B0C00F030D5DE020C13EE
:100B1300E9D2E7C933E833F892D5EDD2E7CD33EC28
:070B230033FC5002B2D522A1
:100B2A00EC30E7100FBF000C0EBE00080DBD00042C
:100B3A000BEB6014A2D5EB13FCED92E7FD2274FFD8
:100B4A00FCFDFEFF22E480F8A2D574FF13FC7D8031
:030B5A00E480EF45
:100F6E00020C46E493A3F8E493A34003F68001F247
:100F7E0008DFF48029E493A3F85407240CC8C33384
:100F8E00C4540F4420C8834004F456800146F6DF53
:100F9E00E4800B01020408102040809011F2E47EE0
:100FAE00019360BCA3FF543F30E509541FFEE49348
:100FBE00A360010ECF54C025E060A840B8E493A30F
:100FCE00FAE493A3F8E493A3C8C582C8CAC583CA3A
:100FDE00F0A3C8C582C8CAC583CADFE9DEE780BEF2
:0111FD0000F1
:100B5D00BB010689828A83E0225002E722BBFE0296
:090B6D00E32289828A83E49322C9
:100B7600EF8DF0A4A8F0CF8CF0A428CE8DF0A42E93
:020B8600FE224D
:100B8800BC000BBE0029EF8DF084FFADF022E4CC51
:100B9800F875F008EF2FFFEE33FEEC33FCEE9DEC1A
:100BA800984005FCEE9DFE0FD5F0E9E4CEFD22ED60
:100BB800F8F5F0EE8420D21CFEADF075F008EF2FAA
:100BC800FFED33FD4007985006D5F0F222C398FD9B
:050BD8000FD5F0EA2238
:100BDD00C2D5EC30E709B2D5E4C39DFDE49CFCEE33
:100BED0030E715B2D5E4C39FFFE49EFE120B88C318
:100BFD00E49DFDE49CFC8003120B8830D507C3E413
:060C0D009FFFE49EFE22A1
:0E0C1300C3E49FFFE49EFEE49DFDE49CFC22F2
:0C0C2100E6FC08E6FD08E6FE08E6FF22FF
:0D0C2D00E6FB08E6F908E6FA08E6CBF82237
:0C0C3A00ECF608EDF608EEF608EFF622E6
:00000001FF
