:0300000002118565
:0C118500787FE4F6D8FD7581730211CC70
:100F12005448303A20005448302A3235363A2000BC
:100F22005448303C3C3A2000544C303A2000205681
:100F32002000206D6F6465200020505554205041E0
:100F42005045522A0020616E64207072696E7420CE
:100F520063007461626C655B696E697456616C757D
:100F6200655D3A2000207461626C652000202D00CE
:100F72002023524553554C5423200073756D3A205B
:100F82000066696C7465723A2000204F56455246DD
:100F92004C4F572000207374617274206D6F64652A
:100FA200200020737461727420002064656275678A
:100FB200206D6F64652000206465627567202000E3
:03143A00013A0074
:10133F00758925758DFD758BFD75CB4CE4F5CA123E
:10134F001434D2CAD28ED28CD29CC29FD29ED2AF2C
:0F135F00D2ACD2A9D2ADD2AAD2A8C28AD2882249
:100FC200754300754406C3E544940AE5436480947E
:100FD200805041AF44EF25E025E02400F8120C2DAB
:100FE200C000EF25E025E02410F8120C21D00012F9
:100FF2000807E4FBFAF97840120A01E54425E025E6
:10100200E02408F8120C3A74042544F544E435430C
:10101200F54380B2754300754401C3E544940AE583
:1010220043648094805041AF44EF25E025E02404DE
:10103200F8120C2DC000EF25E025E0240CF8120C6C
:1010420021D000120807E4FBFAF97840120A01E500
:101052004425E025E02408F8120C3A74022544F5F0
:0810620044E43543F54380B27C
:01106A002263
:100C460012133FE4F534F535C290E53564014534B9
:100C56006003020CDCC2ACAF3C121303E53C6470CB
:100C6600453B70417BFF7A0F79121213DBAF8C7E06
:100C7600001214187BFF7A0F79181213DBAF8CEF72
:100C86007F00FE1214187BFF7A0F79221213DB7F86
:100C9600007E001214187BFF7A0F792A1213DBAF3D
:100CA6008A7E008027E53C6474453B70227BFF7A90
:100CB6000F79301213DBA280E4FE33FF1214187B87
:100CC600FF7A0F79341213DBAF3A7E00121418D272
:0F0CD600ACE4F534F535E53A64016003020E1D18
:100CE500F541754202C3E542940AE541940040038B
:100CF500020D917BFF7A0F793B1213DBAF42AE41B8
:100D05001214187BFF7A0F79471213DBE4F513F5FC
:100D1500127511E0751040F51BF51A751930751827
:100D250041F52BF52A752980752841F533F532757E
:100D35003190753041C2ACAF3C121303E53C64639E
:100D4500453B7036120E43AC06AD07EC120AA3E51F
:100D55004225E025E02408F8120C3A7BFF7A0F794A
:100D6500541213DBE54225E025E02408F8120C2196
:100D7500120ADC121418D2AC8004D2AC80B7E5425A
:100D850025E0F542E54133F541020CEA7BFF7A0F98
:100D950079671213DBE4F53DF53E7BFF7A0F796F3A
:100DA5001213DBAF3EAE3D121418E53E25E025E0FB
:100DB5002408F8120C21120ADC121418053EE53E2F
:100DC5007002053DD3940AE53D6480948040CB12C2
:100DD5000FC27BFF7A0F79671213DBE4F53DF53E11
:100DE5007BFF7A0F796F1213DBAF3EAE3D121418FD
:100DF500E53E25E025E02408F8120C21120ADC1254
:100E05001418053EE53E7002053DD3940AE53D64A0
:080E150080948040CB753A0384
:100E1D00E53A64026003020C4E120E438E3F8F4082
:100E2D007BFF7A0F79721213DBAF40AE3F121418AD
:060E3D00753A03020C4EA1
:0B140D0020B707B29230B7FDB2922268
:100E4300E4F543F544F545F546F549754A021213B1
:100E5300A9E4F54FF550C3E5509406E54F940040DF
:100E630003020F0B12140DE54465377004E5436567
:100E73003660E3AE36AF377C007D14120B88ED6429
:100E8300014C70D2C2ACAC49AD4AAE45AF46120B71
:100E930088ED64014C705E0550E5507002054FE526
:100EA30039FEAD8C7C00E42DF548EC3EF547FCADF6
:100EB30048E4120AA38F4E8E4D8D4C8C4B7BFF7AE8
:100EC3000F797D1213DBAF48AE471214187BFF7AFC
:100ED3000F79831213DB121423120ADC1214181273
:100EE30013C2AF4EAE4DAD4CAC4B1210F8121434CE
:100EF300E4F538F539D2AC0546E54670020545857B
:0E0F03003643853744020E59121423120ADCBD
:010F110022BD
:03000B000212B826
:1012B800C0E0C0F0C083C082C0D075D000C000C0FC
:1012C80001C002C003C004C005C006C0077BFF7A86
:1012D8000F798C1213DB0539E53970020538C28F96
:1012E800D007D006D005D004D003D002D001D0005A
:0B12F800D0D0D082D083D0F0D0E03204
:03000300021211D5
:10121100C0E0C0F0C083C082C0D075D000C000C0A3
:1012210001C002C003C004C005C006C0077F0A7E1A
:101231000012136E7BFF7A0F79971213DB30B2FD28
:10124100753A027BFF7A0F79A41213DBD007D0061F
:10125100D005D004D003D002D001D000D0D0D082AC
:07126100D083D0F0D0E03291
:030013000212686E
:10126800C0E0C0F0C083C082C0D075D000C000C04C
:1012780001C002C003C004C005C006C0077BFF7AD6
:101288000F79AC1213DB30B3FD753A017BFF7A0F8F
:1012980079B91213DBD007D006D005D004D003D01B
:1012A80002D001D000D0D0D082D083D0F0D0E032AC
:0300230002138E37
:10138E00C0D075D000C007C298AF99753B008F3C96
:0B139E00753400753501D007D0D03247
:03002B000213F1CC
:0F13F100C0E0C2CF0537E53770020536D0E032D5
:0D1400005245534554200070332E37200014
:10136E00E4FDFCC3ED9FEC9E5015E4FBFA0BBB00B5
:0F137E00010AEB646E4A70F50DBD00010C80E4AE
:01138D00223D
:06143400E4F58CF58A22AC
:101303008F43E543B4720C7BFF7A1479001213DB2D
:10131300021434E543B4640BAF8C7E00121418AF8F
:101323008A8013E543B465137BFF7A14790712139C
:0C133300DBE5B06407FF7E0012141822F6
:0B14180012106B1213DB7F2002142C5B
:10106B00E4FBFA8F5B900001E55B75F00A84F97580
:10107B00F00AA4FFC3E55B9F2430FF74512BF8A645
:10108B00070BBB00010AE9700874512BF8E4F680DA
:10109B0013895B7C007D0AAF82AE83120B768E8345
:1010AB008F8280C4E4F583F5827C007D02AF03AEB2
:1010BB0002120BDDC3E5829FEE6480F8E58364804A
:1010CB00985023AF8274512FF8E6F9C3EB9FFF744E
:1010DB00502FF8E6FDAC8274512CF8A60574502FF6
:0C10EB00F8A601A380C37B007A007951B5
:0110F70022D6
:08142C008F993099FDC299224D
:1013DB00120B5D6010F5993099FDC299740129F9D2
:0613EB00E43AFA80EB2257
:1013A900756B0A756AD775692375683C756F0A7517
:0913B9006ED7756D23756C3C22A2
:1013C200855F63855E62855D61855C60856B738523
:0913D2006A728569718568702258
:1010F8008F548E538D528C51AF6FAE6EAD6DAC6CFC
:10110800AB6BAA6AA969A868120807A804A905AA66
:1011180006AB07AF6BAE6AAD69AC68120A018F67A0
:101128008E668D658C64AB67AA66A965A864E4FFC2
:10113800FE7D807C3F120803AB6BAA6AA969A86888
:101148001208F88F738E728D718C70AB63AA62A9C6
:1011580061A860AF54AE53AD52AC51120803AB67EF
:10116800AA66A965A8641208F8AB63AA62A961A86F
:0D117800601208078F5F8E5E8D5D8C5C221B
:09142300AF5FAE5EAD5DAC5C2272
:10080000020B48E86480F8E933E83360110460F0D3
:10081000ED33EC337009E8FCE9FDEAFEEBFF22045E
:1008200060DED3EB9FEA9EE99DE8C2E78CF0C2F759
:1008300095F0400CE8CCF8E9CDF9EACEFAEBCFFB25
:10084000120B1385D0F05804700320D5B3E8047060
:10085000075002B2D5020B5292D5EC0460F7E4CCFB
:10086000C0E0C398F8603B94186008400DD0E0FBEE
:10087000020B2AE4FBFAC9FC8028E830E406E4C94C
:10088000FBE4CAFCE830E305E4C9CACBFCE8540742
:100890006010F8C3E913F9EA13FAEB13FBEC13FC4D
:1008A000D8F130F52FC3E49CFCEF9BFFEE9AFEEDF0
:1008B00099FDD0E0FBEF4E4D4C701222DB03020B92
:1008C0004FEC2CFCEF33FFEE33FEED33FDED30E764
:1008D000EB020B2AEF2BFFEE3AFEED39FDD0E0FBE9
:1008E00050130BBB0003020B52ED13FDEE13FEEF92
:0808F00013FFEC13FC020B2ABC
:1008F800EC4D6011E8497017ED33EC3304600DE4FA
:10090800FCFFFEFD22E933E8330470F8020B4812BD
:100918000B1358046009E4CC2481500628500902BE
:100928000B52284003020B4FC0E0EB4A7044B980D9
:1009380006D0E0FB020B3EEF4E701CBD8008EBFFBB
:10094800EAFEE9FD80EBE98DF0A4FEE5F00209E19D
:10095800E9CDF9EAFEEBFFEF89F0A4FCE5F0CE89DA
:10096800F0A42EFFE435F0CD89F0A42DFEE435F097
:100978008067EF4E7005BD80D780C3EF8BF0A4ACC5
:10098800F0EE8BF0A42CFCE435F0F8EF8AF0A42C00
:10099800E5F038FCE433CB8DF0A42CFCE5F03BF813
:1009A800EE8AF0A42CFCE5F038F8E433CF89F0A403
:1009B8002CFCE5F038CF3400CE89F0A42FFFE5F009
:1009C8003EFEE433C98DF0A42EFEE5F039CD8AF061
:1009D800A42FFFE5F03EFEE43DFD33D0E0FB5007D9
:1009E8000BBB000F020B52EC2CFCEF33FFEE33FE77
:0609F800ED33FD020B2AA5
:1009FE00020B52EC5D046005E859047003020B48CB
:100A0E00120B13580460F6EC4860F2EC7004FDFE15
:100A1E00FF22C860DB2481C85009C39860025006CB
:100A2E00020B4F9850CAF582E9294B4A7005AB82EA
:100A3E00020B3E75F0007C1A7880C3EF9BEE9AEDA8
:100A4E0099400DC3EF9BFFEE9AFEED99FDE842F043
:100A5E00DC23ACF0D0E0FFD0E0FED0E0FDAB822096
:100A6E00E7101BEB60BAEC2CFCEF33FFEE33FEED20
:100A7E0033FD020B2AE803F830E705C0F075F000ED
:100A8E00EF2FFFEE33FEED33FD40B830E7C280AA04
:100A9E0075F020800E75F010800575F0087D007ED3
:100AAE00007F003392D530D503120C13EC33401077
:100ABE00EF33FFEE33FEED33FDEC33FCD5F0ED22DC
:0E0ACE00E5F0247EA2D513CC92E7CDCEFF2218
:100ADC00EDD2E7CD33EC3392D524814006E4FFFE12
:100AEC00FDFC22FCE4CFCECDCC24E0501174FF8071
:100AFC00EDC3CC13CCCD13CDCE13CECF13CF04700E
:070B0C00F030D5DE020C13EE
:100B1300E9D2E7C933E833F892D5EDD2E7CD33EC28
:070B230033FC5002B2D522A1
:100B2A00EC30E7100FBF000C0EBE00080DBD00042C
:100B3A000BEB6014A2D5EB13FCED92E7FD2274FFD8
:100B4A00FCFDFEFF22E480F8A2D574FF13FC7D8031
:030B5A00E480EF45
:10119100020C46E493A3F8E493A34003F68001F222
:1011A10008DFF48029E493A3F85407240CC8C3335F
:1011B100C4540F4420C8834004F456800146F6DF2E
:1011C100E4800B010204081020408090143AE47E70
:1011D100019360BCA3FF543F30E509541FFEE49323
:1011E100A360010ECF54C025E060A840B8E493A3EA
:1011F100FAE493A3F8E493A3C8C582C8CAC583CA15
:10120100F0A3C8C582C8CAC583CADFE9DEE780BECC
:01143D0000AE
:100B5D00BB010689828A83E0225002E722BBFE0296
:090B6D00E32289828A83E49322C9
:100B7600EF8DF0A4A8F0CF8CF0A428CE8DF0A42E93
:020B8600FE224D
:100B8800BC000BBE0029EF8DF084FFADF022E4CC51
:100B9800F875F008EF2FFFEE33FEEC33FCEE9DEC1A
:100BA800984005FCEE9DFE0FD5F0E9E4CEFD22ED60
:100BB800F8F5F0EE8420D21CFEADF075F008EF2FAA
:100BC800FFED33FD4007985006D5F0F222C398FD9B
:050BD8000FD5F0EA2238
:100BDD00C2D5EC30E709B2D5E4C39DFDE49CFCEE33
:100BED0030E715B2D5E4C39FFFE49EFE120B88C318
:100BFD00E49DFDE49CFC8003120B8830D507C3E413
:060C0D009FFFE49EFE22A1
:0E0C1300C3E49FFFE49EFEE49DFDE49CFC22F2
:0C0C2100E6FC08E6FD08E6FE08E6FF22FF
:0D0C2D00E6FB08E6F908E6FA08E6CBF82237
:0C0C3A00ECF608EDF608EEF608EFF622E6
:00000001FF
