:0300000002109C4F
:0C109C00787FE4F6D8FD758155020D2325
:1010280073756D3A2000667265713A200066696CC6
:061038007465723A20000D
:100F9600758925758DFD758BFD75CB4CE4F5CA12EB
:100FA60010C4D2CAD28ED28CD29CC29FD29ED2AF4D
:050FB600D2ACD2AD2217
:1010540020B7117F0A7E00120FBB20B707B292306F
:05106400B7FDB292226D
:100D2300E4F520F521F522F523F526752705120FA5
:100D330096E4F54EF54F120FF6C290121054E54F9C
:100D43006401454E700EC2ACAF53120F5ED2ACE4D9
:100D5300F54EF54FE52165517004E520655060D9E6
:100D6300AE50AF517C007D14120C7EED64014C70CB
:100D7300C8C2AC0523E52370020522AC26AD27AE1D
:100D830022FF120C7EED64014C706AAF8CEFFEAD56
:100D93008A7C00E42DF525EC3EF5247BFF7A10795F
:100DA3002812103EAF25AE241210A8AC24AD25E4C2
:100DB300120AA38F2B8E2A8D298C287BFF7A107918
:100DC3002E12103EAF2BAE2AAD29AC28120ADC122C
:100DD30010A812100FAF2BAE2AAD29AC28120E901B
:100DE3007BFF7A10793512103E1210B3120ADC120F
:100DF30010A81210C4D2AC855020855121020D3C9D
:03002300020FDBEE
:100FDB00C0D075D000C007C298AF997552008F531F
:0B0FEB00754E00754F01D007D0D032CA
:03002B0002108D33
:0F108D00C0E0C2CF0551E55170020550D0E032EE
:10107D0052455345542000676F7420697421200038
:100FBB00E4FDFCC3ED9FEC9E5015E4FBFA0BBB006C
:0F0FCB00010AEB646E4A70F50DBD00010C80E465
:010FDA0022F4
:0610C400E4F58CF58A2220
:100F5E008F2CE52CB4720C7BFF7A10797D12103E2B
:100F6E000210C4E52CB4640EAF8C7E001210A8AF34
:100F7E008A7E000210A87BFF7A10798412103E85BB
:080F8E002C993099FDC2992253
:0B10A800120E0312103E7F200210BC4D
:100E0300E4FBFA8F37900001E53775F00A84F97532
:100E1300F00AA4FFC3E5379F2430FF742D2BF8A6F7
:100E2300070BBB00010AE97008742D2BF8E4F68068
:100E33001389377C007D0AAF82AE83120C6C8E83DC
:100E43008F8280C4E4F583F5827C007D02AF03AE1C
:100E530002120CD3C3E5829FEE6480F8E5836480BD
:100E6300985023AF82742D2FF8E6F9C3EB9FFF74DC
:100E73002C2FF8E6FDAC82742D2CF8A605742C2FCC
:0C0E8300F8A601A380C37B007A00792D43
:010E8F002240
:0810BC008F993099FDC29922C1
:10103E00120C536010F5993099FDC299740129F97B
:06104E00E43AFA80EB22F7
:1010690040533333404CCCCD40466666403333332E
:04107900402CCCCD6E
:100FF60075170A7516D775152375143C751B0A7572
:091006001AD775192375183C2254
:10100F00850B0F850A0E85090D85080C85171F8521
:09101F00161E85151D85141C2206
:100E90008F2F8E2E8D2D8C2CAF1BAE1AAD19AC184A
:100EA000AB17AA16A915A814120807A804A905AA21
:100EB00006AB07AF17AE16AD15AC14120A018F13AF
:100EC0008E128D118C10AB13AA12A911A810E4FF79
:100ED000FE7D807C3F120803AB17AA16A915A81443
:100EE0001208F88F1F8E1E8D1D8C1CAB0FAA0EA929
:100EF0000DA80CAF2FAE2EAD2DAC2C120803AB13EA
:100F0000AA12A911A8101208F8AB0FAA0EA90DA8D1
:0D0F10000C1208078F0B8E0A8D098C082229
:0910B300AF0BAE0AAD09AC082236
:100F1D0078387C007D007BFF7A1079697E007F1424
:100F2D00120C2D120FF6E4F54CF54D12100FE54D88
:100F3D0025E025E02438F8120D17120E90054DE529
:100F4D004D7002054CC39405E54C6480948040DBE4
:010F5D002271
:10080000020B48E86480F8E933E83360110460F0D3
:10081000ED33EC337009E8FCE9FDEAFEEBFF22045E
:1008200060DED3EB9FEA9EE99DE8C2E78CF0C2F759
:1008300095F0400CE8CCF8E9CDF9EACEFAEBCFFB25
:10084000120B1385D0F05804700320D5B3E8047060
:10085000075002B2D5020B5292D5EC0460F7E4CCFB
:10086000C0E0C398F8603B94186008400DD0E0FBEE
:10087000020B2AE4FBFAC9FC8028E830E406E4C94C
:10088000FBE4CAFCE830E305E4C9CACBFCE8540742
:100890006010F8C3E913F9EA13FAEB13FBEC13FC4D
:1008A000D8F130F52FC3E49CFCEF9BFFEE9AFEEDF0
:1008B00099FDD0E0FBEF4E4D4C701222DB03020B92
:1008C0004FEC2CFCEF33FFEE33FEED33FDED30E764
:1008D000EB020B2AEF2BFFEE3AFEED39FDD0E0FBE9
:1008E00050130BBB0003020B52ED13FDEE13FEEF92
:0808F00013FFEC13FC020B2ABC
:1008F800EC4D6011E8497017ED33EC3304600DE4FA
:10090800FCFFFEFD22E933E8330470F8020B4812BD
:100918000B1358046009E4CC2481500628500902BE
:100928000B52284003020B4FC0E0EB4A7044B980D9
:1009380006D0E0FB020B3EEF4E701CBD8008EBFFBB
:10094800EAFEE9FD80EBE98DF0A4FEE5F00209E19D
:10095800E9CDF9EAFEEBFFEF89F0A4FCE5F0CE89DA
:10096800F0A42EFFE435F0CD89F0A42DFEE435F097
:100978008067EF4E7005BD80D780C3EF8BF0A4ACC5
:10098800F0EE8BF0A42CFCE435F0F8EF8AF0A42C00
:10099800E5F038FCE433CB8DF0A42CFCE5F03BF813
:1009A800EE8AF0A42CFCE5F038F8E433CF89F0A403
:1009B8002CFCE5F038CF3400CE89F0A42FFFE5F009
:1009C8003EFEE433C98DF0A42EFEE5F039CD8AF061
:1009D800A42FFFE5F03EFEE43DFD33D0E0FB5007D9
:1009E8000BBB000F020B52EC2CFCEF33FFEE33FE77
:0609F800ED33FD020B2AA5
:1009FE00020B52EC5D046005E859047003020B48CB
:100A0E00120B13580460F6EC4860F2EC7004FDFE15
:100A1E00FF22C860DB2481C85009C39860025006CB
:100A2E00020B4F9850CAF582E9294B4A7005AB82EA
:100A3E00020B3E75F0007C1A7880C3EF9BEE9AEDA8
:100A4E0099400DC3EF9BFFEE9AFEED99FDE842F043
:100A5E00DC23ACF0D0E0FFD0E0FED0E0FDAB822096
:100A6E00E7101BEB60BAEC2CFCEF33FFEE33FEED20
:100A7E0033FD020B2AE803F830E705C0F075F000ED
:100A8E00EF2FFFEE33FEED33FD40B830E7C280AA04
:100A9E0075F020800E75F010800575F0087D007ED3
:100AAE00007F003392D530D503120D09EC33401080
:100ABE00EF33FFEE33FEED33FDEC33FCD5F0ED22DC
:0E0ACE00E5F0247EA2D513CC92E7CDCEFF2218
:100ADC00EDD2E7CD33EC3392D524814006E4FFFE12
:100AEC00FDFC22FCE4CFCECDCC24E0501174FF8071
:100AFC00EDC3CC13CCCD13CDCE13CECF13CF04700E
:070B0C00F030D5DE020D09F7
:100B1300E9D2E7C933E833F892D5EDD2E7CD33EC28
:070B230033FC5002B2D522A1
:100B2A00EC30E7100FBF000C0EBE00080DBD00042C
:100B3A000BEB6014A2D5EB13FCED92E7FD2274FFD8
:100B4A00FCFDFEFF22E480F8A2D574FF13FC7D8031
:030B5A00E480EF45
:100B5D00E709F608DFFA8046E709F208DFFA803E7A
:100B6D0088828C83E709F0A3DFFA8032E309F60867
:100B7D00DFFA8078E309F208DFFA807088828C83CF
:100B8D00E309F0A3DFFA806489828A83E0A3F60883
:100B9D00DFFA805889828A83E0A3F208DFFA804C5D
:100BAD0080D280FA80C680D4806980F28033801034
:100BBD0080A680EA809A80A880DA80E280CA80339D
:100BCD0089828A83ECFAE493A3C8C582C8CCC58315
:100BDD00CCF0A3C8C582C8CCC583CCDFE9DEE780E5
:100BED000D89828A83E493A3F608DFF9ECFAA9F064
:100BFD00EDFB2289828A83ECFAE0A3C8C582C8CCBA
:100C0D00C583CCF0A3C8C582C8CCC583CCDFEADED2
:100C1D00E880DB89828A83E493A3F208DFF980CC34
:100C2D0088F0EF60010E4E60C388F0ED2402B4042D
:100C3D000050B9F582EB2402B4040050AF232345D4
:060C4D008223900BAD7341
:100C5300BB010689828A83E0225002E722BBFE029F
:090C6300E32289828A83E49322D2
:100C6C00EF8DF0A4A8F0CF8CF0A428CE8DF0A42E9C
:020C7C00FE2256
:100C7E00BC000BBE0029EF8DF084FFADF022E4CC5A
:100C8E00F875F008EF2FFFEE33FEEC33FCEE9DEC23
:100C9E00984005FCEE9DFE0FD5F0E9E4CEFD22ED69
:100CAE00F8F5F0EE8420D21CFEADF075F008EF2FB3
:100CBE00FFED33FD4007985006D5F0F222C398FDA4
:050CCE000FD5F0EA2241
:100CD300C2D5EC30E709B2D5E4C39DFDE49CFCEE3C
:100CE30030E715B2D5E4C39FFFE49EFE120C7EC32A
:100CF300E49DFDE49CFC8003120C7E30D507C3E425
:060D03009FFFE49EFE22AA
:0E0D0900C3E49FFFE49EFEE49DFDE49CFC22FB
:0C0D1700E6FC08E6FD08E6FE08E6FF2208
:00000001FF
