:03000000020A39B8
:0C0A3900787FE4F6D8FD75811302089D5B
:1009A800758925758DFD758BFD75CB4CE4F5CA12DF
:1009B8000A45D2CAD28ED28CD29CC29FD29ED2AFC6
:0509C800D2ACD2AD220B
:100A080020B7117F0A7E001209CD20B707B29230B5
:050A1800B7FDB29222BF
:10089D00E4F510F5111209A8E4F508F509120A0896
:1008AD00E509640145087016C2ACAF0D1209158536
:1008BD000D993099FDC299D2ACE4F508F509E51111
:1008CD00650B7004E510650A60D3AE0AAF0B7C00B2
:1008DD007D14120812ED64014C70C2C2ACAE0AAFA9
:1008ED000B7C047DB0120812ED64014C70087599F3
:1008FD00263099FDC29975992A3099FDC299D2ACCD
:08090D00850A10850B1180958D
:030023000209EDE2
:1009ED00C0D075D000C007C298AF99750C008F0D9F
:0B09FD00750800750901D007D0D0324A
:03002B00020A1DA9
:0F0A1D00C0E0C2CF050BE50B7002050AD0E03236
:0D0A2C00476F742069740052455345540013
:1009CD00E4FDFCC3ED9FEC9E5015E4FBFA0BBB0060
:0F09DD00010AEB646E4A70F50DBD00010C80E459
:0109EC0022E8
:060A4500E4F58CF58A22A5
:10091500BF7224E4FCFD74332DF582740A3CF58323
:10092500E493F5993099FDC2990DBD00010CED6474
:0C093500054C70E2020A45EF6464701982
:10094100AF8A8F12AF8AF5138512993099FDC2993A
:080951008513993099FDC2994C
:1009590022E4FCFD742C2DF582740A3CF583E493A2
:10096900F5993099FDC2990DBD00010CED64064C55
:0209790070E22A
:01097B002259
:04097C00AB07AA0615
:10098000900001AF03AE02AD82AC83120867EF4E58
:1009900060117C007D0AAF82AE831208008E838FC7
:0709A0008280E07E007F7AF7
:0109A700222D
:10080000EF8DF0A4A8F0CF8CF0A428CE8DF0A42E0C
:02081000FE22C6
:10081200BC000BBE0029EF8DF084FFADF022E4CCCA
:10082200F875F008EF2FFFEE33FEEC33FCEE9DEC93
:10083200984005FCEE9DFE0FD5F0E9E4CEFD22EDD9
:10084200F8F5F0EE8420D21CFEADF075F008EF2F23
:10085200FFED33FD4007985006D5F0F222C398FD14
:050862000FD5F0EA22B1
:10086700C2D5EC30E709B2D5E4C39DFDE49CFCEEAC
:1008770030E715B2D5E4C39FFFE49EFE120812C30A
:10088700E49DFDE49CFC800312081230D507C3E405
:060897009FFFE49EFE221B
:00000001FF
