:030000000208D61D
:0C08D600787FE4F6D8FD75810C02080064
:0D08C900476F742069740052455345540078
:0608EB00E4F58CF58A2201
:10089900758925758DFD758BFD1208EBD28ED28C6D
:0B08A900D29CC29FD29ED2AFD2AC22E4
:10087900E4FDFCC3ED9FEC9E5015E4FBFA0BBB00B5
:0F088900010AEB646E4A70F50DBD00010C80E4AE
:01089800223D
:1008B40020B7117F0A7E0012087920B707B2923060
:0508C400B7FDB2922215
:10080000120899E4F508C2901208B4E508B401F69C
:10081000C2ACE509B4721CE4F50AE50A9008D0936D
:10082000F5993099FDC299050AE50AB405EC12085C
:09083000EB8037E5096464701ADD
:10083900AF8A8F0BAF8AF50C850B993099FDC29958
:08084900850C993099FDC2995C
:100851008017E4F50AE50A9008C993F5993099FDE6
:10086100C299050AE50AB406EC8509993099FDC2D9
:0808710099D2ACE4F508808D7A
:030023000208E2EE
:0908E200C29885990975080132DC
:00000001FF
