:03000000020A559C
:0C0A5500787FE4F6D8FD75811702089D3B
:1009C400758925758DFD758BFD75CB4CE4F5CA12C3
:1009D4000A69D2CAD28ED28CD29CC29FD29ED2AF86
:0509E400D2ACD2AD22EF
:100A240020B7117F0A7E001209E920B707B292307D
:050A3400B7FDB29222A3
:10089D00E4F510F511F512F513F51475150512099A
:1008AD00C4E4F508F509C290120A24E5096401456E
:1008BD00087016C2ACAF0D120930850D993099FD37
:1008CD00C299D2ACE4F508F509E511650B7004E5A4
:1008DD0010650A60D1AE0AAF0B7C007D14120812B0
:1008ED00ED64014C70C0C2AC0513E5137002051226
:1008FD00AC14AD15AE12FF120812ED64014C701957
:10090D0075993A3099FDC299AF8C7E00120A61AF8C
:10091D008A7E00120A61120A69D2AC850A10850B13
:03092D00118083B3
:03002300020A09C5
:100A0900C0D075D000C007C298AF99750C008F0D82
:0B0A1900750800750901D007D0D0322D
:03002B00020A398D
:0F0A3900C0E0C2CF050BE50B7002050AD0E0321A
:0D0A4800476F7420697400524553455400F7
:1009E900E4FDFCC3ED9FEC9E5015E4FBFA0BBB0044
:0F09F900010AEB646E4A70F50DBD00010C80E43D
:010A080022CB
:060A6900E4F58CF58A2281
:10093000BF722BE4F516F517744F2517F582740A6C
:100940003516F583E493F5993099FDC2990517E5BD
:1009500017700205166405451670DD020A69BF644A
:100960000EAF8C7E00120A61AF8A7E00020A61E43B
:10097000F516F51774482517F582740A3516F583B0
:10098000E493F5993099FDC2990517E517700205B2
:07099000166406451670DD38
:01099700223D
:080A61008F993099FDC2992222
:04099800AB07AA06F9
:10099C00900001AF03AE02AD82AC83120867EF4E3C
:1009AC0060117C007D0AAF82AE831208008E838FAB
:0709BC008280E07E007F7ADB
:0109C3002211
:10080000EF8DF0A4A8F0CF8CF0A428CE8DF0A42E0C
:02081000FE22C6
:10081200BC000BBE0029EF8DF084FFADF022E4CCCA
:10082200F875F008EF2FFFEE33FEEC33FCEE9DEC93
:10083200984005FCEE9DFE0FD5F0E9E4CEFD22EDD9
:10084200F8F5F0EE8420D21CFEADF075F008EF2F23
:10085200FFED33FD4007985006D5F0F222C398FD14
:050862000FD5F0EA22B1
:10086700C2D5EC30E709B2D5E4C39DFDE49CFCEEAC
:1008770030E715B2D5E4C39FFFE49EFE120812C30A
:10088700E49DFDE49CFC800312081230D507C3E405
:060897009FFFE49EFE221B
:00000001FF
