:0300000002107E6D
:0C107E00787FE4F6D8FD75817A0210C579
:10134900C0F9A4B0999282F880908883C6A1868E4C
:021359007FFF14
:0B139600062F020002010403012400E6
:06120F007B007A00792F3C
:061215008B608A61896212
:10121B00C2B6C2B7E4FFEFC39460502BEF24A0F526
:10122B00A0AB600562E562AA617002056114F91258
:10123B000B5D90134993F580E4FE0EBE64FC758044
:09124B00FF74102FFF80CFC2A731
:011254002277
:0412A4007B117D112C
:1012A8008F2F8D308B31855D32855E33855F347B42
:0812B800007A00792F021215E3
:10130D0020A4107533097F647E0012128430A4FD71
:06131D007F00227F052283
:0D1388008006BF050812120F12130D80F52C
:011395002235
:0F135B00EF146007047007E4F5302275300122AB
:10132300752F1175301175311175321175330D75B6
:03133300340B2256
:10133600752F1175301175311175321175330B75A5
:03134600340E2240
:10125500758925758DFD758BFD75CB4CE4F5CA1229
:1012650013ABD2CAD28ED28CD29CC29FD29ED2AFA1
:0F127500D2ACD2A9D2ADD2AAD2A8C28AC2882244
:10110A007D06EDC3940A5030ED25E02404F8E6FE8E
:10111A0008E6FFED25E0240CF8E6FA08E62FFFEAD8
:10112A003EC313FEEF13FFED25E02408F8A60608D8
:10113A00A60774042DFD80CA7D01EDC3940A502EC2
:10114A00ED25E02406F8E6FE08E6FFED25E0240A90
:10115A00F8E6FA08E62FFFEA3EC313FEEF13FFEDA7
:0E116A0025E02408F8A60608A6070D0D80CC87
:011178002254
:100C2100121255E4F51EF51F12120F12130DEF6487
:0E0C31000560028F2FE52464016003020E9817
:100C3F00F55DF55EF55FFBFDFF1212A8121388E458
:100C4F00F546754502E545C3940A5062755D11E49A
:100C5F00F55E85455F7F0A1212A4121388120F12D8
:100C6F00E54525E02408F8A60608A607AF45E546A2
:100C7F0025E02429F8760008A607E54525E0240895
:100C8F00F8E6FE08E6FFE54625E02435F8A6060857
:100C9F00A607755D01755E01755F017B017D017FA3
:100CAF000A1212A80546E54525E0F545809712136F
:010CBF0088AC
:100CC000E4F547F548F549F54AF54BF54CF54DF592
:100CD0004E85464FE546D394004062E54625E02424
:100CE00035F8E6FC08E6FDFFAE04120B76EF25486A
:100CF000F548EE3547F547E54625E02435F8E6FEAC
:100D000008E6FF254AF54AEE3549F549E54625E06E
:100D10002429F8E6FC08E6FD120B76EF254CF54C8D
:100D2000EE354BF54BE54625E02429F8E6FE08E6CE
:100D3000254EF54EEE354DF54D15468097AF4F7E5D
:100D400000AC47AD48120B76AA06AB07AC49AD4ADA
:100D5000AE49AF4A120B76C3EB9FFBEA9EFAAF4F48
:100D60007E00AC4BAD4C120B768E838F82AC4DADBA
:100D70004EAE49AF4A120B76C3E5829FFFE5839ED4
:100D8000FEAD03AC02120B88AC06AD07E4120AA359
:100D90008F288E278D268C25E4FFFE7D207C41AB9D
:100DA00028AA27A926A8251208F8120ADC8E478F40
:100DB000487C007D64120B88AB07EB75F00AA4FA3F
:100DC000AE47AF487C007D0A120B88C3EF9AF55EF0
:100DD0008B5DAE47AF487C007D0A120B888D5F7F2C
:100DE000011212A4121388AF4F7E00AC47AD481217
:100DF0000B76AA06AB07AC49AD4AAE49AF4A120B17
:100E000076C3EB9FFBEA9EFAAC4BAD4CAE49AF4AC2
:100E1000120B768E838F82AC4DAD4EAE47AF48122B
:100E20000B76C3EF9582FFEE9583FEAD03AC021205
:100E30000B88AC06AD07E4120AA38F408E3F8D3EAF
:100E40008C3DE4FFFE7D207C41AB40AA3FA93EA83B
:100E50003D1208F8120ADC8E478F487C007D641230
:100E60000B88AB07EB75F00AA4FAAE47AF487C00DD
:100E70007D0A120B88C3EF9AF55E8B5DAE47AF48D3
:100E80007C007D0A120B888D5F7B117D117F021221
:050E900012A8121388F6
:030E9500752403BE
:100E9800E52464026003020C29120F128E438F446A
:100EA800AC43AD44EC120AA3AB28AA27A926A8256F
:100EB8001208F8AB40AA3FA93EA83D120807120A3B
:100EC800DC8E438F447C007D64120BDDAB07AE43A0
:100ED800AF447C007D0A120BDDE58C75F0648475E7
:100EE800F00AA4FEC3EF9EF55E8B5DAE43AF447C73
:100EF800007D0A120BDD8D5F7B117D117F091212B7
:0A0F0800A8121388752403020C29B7
:100F1200E4F550F551F552F553F556755702121294
:100F2200DBE4F558F559C3E5599406E558940050A9
:100F32006FE55165217004E550652060E9AE20AF90
:100F4200217C007D14120B88ED64014C70D8C2AC78
:100F5200AC56AD57AE52AF53120B88ED64014C70D4
:100F62002D0559E55970020558E523FEAD8C7C002C
:100F7200E42DF555EC3EF5541212F4AC54AD55E4A3
:100F8200120AA3120FF11213ABE4F522F523D2AC2D
:100F92000553E55370020552852050852151808604
:100FA2001213A2120ADC8E548F557C007D64120B40
:100FB20088AB07EB75F00AA4FAAE54AF557C007DFE
:100FC2000A120B88C3EF9AF55E8B5DAF59C007AE6C
:100FD20054AF557C007D0A120B888D5FD0077B10C1
:0E0FE2007D101212A81213881213A2120ADC3C
:010FF00022DE
:03000B0002136A73
:0F136A00C0E00523E52370020522C28FD0E032D8
:030003000211796E
:10117900C0E0C0F0C083C082C0D075D000C000C03C
:1011890001C002C003C004C005C006C0071213365F
:101199007F647E0012128430B2FD752402752F001F
:1011A900D007D006D005D004D003D002D001D0009A
:0B11B900D0D0D082D083D0F0D0E03244
:030013000211C413
:1011C400C0E0C0F0C083C082C0D075D000C000C0F1
:1011D40001C002C003C004C005C006C00712132327
:1011E4007F647E0012128430B3FD752401752F00D4
:1011F400D007D006D005D004D003D002D001D0004F
:0B120400D0D0D082D083D0F0D0E032F8
:030023000212C006
:1012C000C0D075D000C007C298AF99753B008F3C65
:0B12D000751E00751F01D007D0D03242
:03002B0002137944
:0F137900C0E0C2CF0521E52170020520D0E0328F
:10128400E4FDFCC3ED9FEC9E5015E4FBFA0BBB00A0
:0F129400010AEB646E4A70F50DBD00010C80E499
:0112A3002228
:0613AB00E4F58CF58A2236
:1012DB0075720A7571D7757023756F3C75760A75C3
:0912EB0075D775742375733C225C
:1012F40085666A85656985646885636785727A85AC
:091304007179857078856F7722FC
:100FF1008F5D8E5C8D5B8C5AAF76AE75AD74AC73C4
:10100100AB72AA71A970A86F120807A804A905AA52
:1010110006AB07AF72AE71AD70AC6F120A018F6E85
:101021008E6D8D6C8C6BAB6EAA6DA96CA86BE4FF99
:10103100FE7D807C3F120803AB72AA71A970A86F74
:101041001208F88F7A8E798D788C77AB6AAA69A9A4
:1010510068A867AF5DAE5CAD5BAC5A120803AB6EBE
:10106100AA6DA96CA86B1208F8AB6AAA69A968A84D
:0D107100671208078F668E658D648C632200
:0913A200AF66AE65AD64AC6322D8
:10080000020B48E86480F8E933E83360110460F0D3
:10081000ED33EC337009E8FCE9FDEAFEEBFF22045E
:1008200060DED3EB9FEA9EE99DE8C2E78CF0C2F759
:1008300095F0400CE8CCF8E9CDF9EACEFAEBCFFB25
:10084000120B1385D0F05804700320D5B3E8047060
:10085000075002B2D5020B5292D5EC0460F7E4CCFB
:10086000C0E0C398F8603B94186008400DD0E0FBEE
:10087000020B2AE4FBFAC9FC8028E830E406E4C94C
:10088000FBE4CAFCE830E305E4C9CACBFCE8540742
:100890006010F8C3E913F9EA13FAEB13FBEC13FC4D
:1008A000D8F130F52FC3E49CFCEF9BFFEE9AFEEDF0
:1008B00099FDD0E0FBEF4E4D4C701222DB03020B92
:1008C0004FEC2CFCEF33FFEE33FEED33FDED30E764
:1008D000EB020B2AEF2BFFEE3AFEED39FDD0E0FBE9
:1008E00050130BBB0003020B52ED13FDEE13FEEF92
:0808F00013FFEC13FC020B2ABC
:1008F800EC4D6011E8497017ED33EC3304600DE4FA
:10090800FCFFFEFD22E933E8330470F8020B4812BD
:100918000B1358046009E4CC2481500628500902BE
:100928000B52284003020B4FC0E0EB4A7044B980D9
:1009380006D0E0FB020B3EEF4E701CBD8008EBFFBB
:10094800EAFEE9FD80EBE98DF0A4FEE5F00209E19D
:10095800E9CDF9EAFEEBFFEF89F0A4FCE5F0CE89DA
:10096800F0A42EFFE435F0CD89F0A42DFEE435F097
:100978008067EF4E7005BD80D780C3EF8BF0A4ACC5
:10098800F0EE8BF0A42CFCE435F0F8EF8AF0A42C00
:10099800E5F038FCE433CB8DF0A42CFCE5F03BF813
:1009A800EE8AF0A42CFCE5F038F8E433CF89F0A403
:1009B8002CFCE5F038CF3400CE89F0A42FFFE5F009
:1009C8003EFEE433C98DF0A42EFEE5F039CD8AF061
:1009D800A42FFFE5F03EFEE43DFD33D0E0FB5007D9
:1009E8000BBB000F020B52EC2CFCEF33FFEE33FE77
:0609F800ED33FD020B2AA5
:1009FE00020B52EC5D046005E859047003020B48CB
:100A0E00120B13580460F6EC4860F2EC7004FDFE15
:100A1E00FF22C860DB2481C85009C39860025006CB
:100A2E00020B4F9850CAF582E9294B4A7005AB82EA
:100A3E00020B3E75F0007C1A7880C3EF9BEE9AEDA8
:100A4E0099400DC3EF9BFFEE9AFEED99FDE842F043
:100A5E00DC23ACF0D0E0FFD0E0FED0E0FDAB822096
:100A6E00E7101BEB60BAEC2CFCEF33FFEE33FEED20
:100A7E0033FD020B2AE803F830E705C0F075F000ED
:100A8E00EF2FFFEE33FEED33FD40B830E7C280AA04
:100A9E0075F020800E75F010800575F0087D007ED3
:100AAE00007F003392D530D503120C13EC33401077
:100ABE00EF33FFEE33FEED33FDEC33FCD5F0ED22DC
:0E0ACE00E5F0247EA2D513CC92E7CDCEFF2218
:100ADC00EDD2E7CD33EC3392D524814006E4FFFE12
:100AEC00FDFC22FCE4CFCECDCC24E0501174FF8071
:100AFC00EDC3CC13CCCD13CDCE13CECF13CF04700E
:070B0C00F030D5DE020C13EE
:100B1300E9D2E7C933E833F892D5EDD2E7CD33EC28
:070B230033FC5002B2D522A1
:100B2A00EC30E7100FBF000C0EBE00080DBD00042C
:100B3A000BEB6014A2D5EB13FCED92E7FD2274FFD8
:100B4A00FCFDFEFF22E480F8A2D574FF13FC7D8031
:030B5A00E480EF45
:10108A00020C21E493A3F8E493A34003F68001F24F
:10109A0008DFF48029E493A3F85407240CC8C33367
:1010AA00C4540F4420C8834004F456800146F6DF36
:1010BA00E4800B0102040810204080901396E47E1D
:1010CA00019360BCA3FF543F30E509541FFEE4932B
:1010DA00A360010ECF54C025E060A840B8E493A3F2
:1010EA00FAE493A3F8E493A3C8C582C8CAC583CA1D
:1010FA00F0A3C8C582C8CAC583CADFE9DEE780BED5
:0113A100004B
:100B5D00BB010689828A83E0225002E722BBFE0296
:090B6D00E32289828A83E49322C9
:100B7600EF8DF0A4A8F0CF8CF0A428CE8DF0A42E93
:020B8600FE224D
:100B8800BC000BBE0029EF8DF084FFADF022E4CC51
:100B9800F875F008EF2FFFEE33FEEC33FCEE9DEC1A
:100BA800984005FCEE9DFE0FD5F0E9E4CEFD22ED60
:100BB800F8F5F0EE8420D21CFEADF075F008EF2FAA
:100BC800FFED33FD4007985006D5F0F222C398FD9B
:050BD8000FD5F0EA2238
:100BDD00C2D5EC30E709B2D5E4C39DFDE49CFCEE33
:100BED0030E715B2D5E4C39FFFE49EFE120B88C318
:100BFD00E49DFDE49CFC8003120B8830D507C3E413
:060C0D009FFFE49EFE22A1
:0E0C1300C3E49FFFE49EFEE49DFDE49CFC22F2
:00000001FF
