:03000000020FD21A
:0C0FD200787FE4F6D8FD758158021019F4
:10105E005448303A20005448302A3235363A20006F
:10106E005448303C3C3A2000544C303A2000205634
:10107E002000206D6F6465200073756D3A20006648
:10108E007265713A200066696C7465723A2000725E
:10109E006F756E643A2000204F564552464C4F579E
:1010AE002000207374617274206D6F6465200020BF
:1010BE0073746172742000206465627567206D6FB1
:0D10CE0064652000206465627567202000C5
:031359000154003C
:10124A00758925758DFD758BFD75CB4CE4F5CA1234
:10125A001353D2CAD28ED28CD29CC29FD29ED2AF04
:0F126A00D2ACD2A9D2ADD2AAD2A8C28AD288223F
:0A132C0020B707B29230B7FDB2926D
:011336002294
:100D2300E4F520F521F522F523F5267527051212A2
:100D33004AE4F54EF54F1212B4C29012132CE54F4C
:100D43006401454E6003020DCDC2ACAF5612120EC4
:100D5300E5566470455570417BFF7A10795E121237
:100D6300E6AF8C7E001213377BFF7A107964121280
:100D7300E6AF8CEF7F00FE1213377BFF7A10796E9C
:100D83001212E67F007E001213377BFF7A1079760A
:100D93001212E6AF8A7E008027E5566474455570CB
:100DA300227BFF7A10797C1212E6A280E4FE33FFE5
:100DB3001213377BFF7A1079801212E6AF547E004C
:100DC300121337D2ACE4F54EF54FE52165517004AB
:100DD300E52065507003020D3CAE50AF517C007DA1
:100DE30014120C7EED64014C6003020D3CC2AC0591
:100DF30023E52370020522AC26AD27AE22FF120C99
:100E03007EED64014C6003020EADE553FEAD8C7CB8
:100E130000E42DF525EC3EF524FCAD25E4120AA3F0
:100E2300C004C005C006C007AC26AD27E4120AA360
:100E3300A804A905AA06AB07D007D006D005D0049D
:100E4300120A018F2B8E2A8D298C287BFF7A107929
:100E5300871212E6AF25AE241213377BFF7A10797F
:100E63008D1212E6AF2BAE2AAD29AC28120ADC1282
:100E730013377BFF7A1079941212E6121342120A87
:100E8300DC1213377BFF7A10799D1212E6AF53AE53
:100E9300521213371212CDAF2BAE2AAD29AC281242
:100EA3000F45121353E4F552F553D2AC8550208508
:050EB3005121020D3C7D
:03000B000211825D
:10118200C0E0C0F0C083C082C0D075D000C000C033
:1011920001C002C003C004C005C006C0077BFF7ABD
:1011A2001079A51212E60553E55370020552C28F5B
:1011B200D007D006D005D004D003D002D001D00091
:0B11C200D0D0D082D083D0F0D0E0323B
:030003000210DB0D
:1010DB00C0E0C0F0C083C082C0D075D000C000C0DB
:1010EB0001C002C003C004C005C006C0077F0A7E52
:1010FB00001212797BFF7A1079B01212E630B2FD32
:10110B007554027BFF7A1079BD1212E6D007D00618
:10111B00D005D004D003D002D001D000D0D0D082E3
:07112B00D083D0F0D0E032C8
:03001300021132A5
:10113200C0E0C0F0C083C082C0D075D000C000C083
:1011420001C002C003C004C005C006C0077BFF7A0D
:101152001079C51212E630B3FD7554017BFF7A1087
:1011620079D21212E6D007D006D005D004D003D02F
:1011720002D001D000D0D0D082D083D0F0D0E032E3
:030023000212992D
:10129900C0D075D000C007C298AF997555008F5658
:0B12A900754E00754F01D007D0D03209
:03002B00021310AD
:0F131000C0E0C2CF0551E55170020550D0E03268
:0D131F005245534554200070332E372000F6
:10127900E4FDFCC3ED9FEC9E5015E4FBFA0BBB00AB
:0F128900010AEB646E4A70F50DBD00010C80E4A4
:011298002233
:06135300E4F58CF58A228E
:10120E008F2CE52CB4720C7BFF7A13791F1212E629
:10121E00021353E52CB4640BAF8C7E00121337AF60
:10122E008A8013E52CB465137BFF7A13792612128C
:0C123E00E6E5B06407FF7E0012133722C3
:0B133700120EB81212E67F2002134BCA
:100EB800E4FBFA8F37900001E53775F00A84F9757D
:100EC800F00AA4FFC3E5379F2430FF742D2BF8A642
:100ED800070BBB00010AE97008742D2BF8E4F680B3
:100EE8001389377C007D0AAF82AE83120C6C8E8327
:100EF8008F8280C4E4F583F5827C007D02AF03AE67
:100F080002120CD3C3E5829FEE6480F8E583648007
:100F1800985023AF82742D2FF8E6F9C3EB9FFF7426
:100F28002C2FF8E6FDAC82742D2CF8A605742C2F16
:0C0F3800F8A601A380C37B007A00792D8D
:010F4400228A
:08134B008F993099FDC299222F
:1012E600120C536010F5993099FDC299740129F9D1
:0612F600E43AFA80EB224D
:1012FC0040533333404CCCCD404666664033333399
:04130C00402CCCCDD8
:1012B40075170A7516D775152375143C751B0A75B1
:0912C4001AD775192375183C2294
:1012CD00850B0F850A0E85090D85080C85171F8561
:0912DD00161E85151D85141C2246
:100F45008F2F8E2E8D2D8C2CAF1BAE1AAD19AC1894
:100F5500AB17AA16A915A814120807A804A905AA6B
:100F650006AB07AF17AE16AD15AC14120A018F13F9
:100F75008E128D118C10AB13AA12A911A810E4FFC3
:100F8500FE7D807C3F120803AB17AA16A915A8148D
:100F95001208F88F1F8E1E8D1D8C1CAB0FAA0EA973
:100FA5000DA80CAF2FAE2EAD2DAC2C120803AB1334
:100FB500AA12A911A8101208F8AB0FAA0EA90DA81C
:0D0FC5000C1208078F0B8E0A8D098C082274
:09134200AF0BAE0AAD09AC0822A4
:1011CD0078387C007D007BFF7A1279FC7E007F14DD
:1011DD00120C2D1212B4E4F54CF54D1212CDE54D55
:1011ED0025E025E02438F8120D17120F45054DE5C1
:1011FD004D7002054CC39405E54C6480948040DB32
:01120D0022BE
:10080000020B48E86480F8E933E83360110460F0D3
:10081000ED33EC337009E8FCE9FDEAFEEBFF22045E
:1008200060DED3EB9FEA9EE99DE8C2E78CF0C2F759
:1008300095F0400CE8CCF8E9CDF9EACEFAEBCFFB25
:10084000120B1385D0F05804700320D5B3E8047060
:10085000075002B2D5020B5292D5EC0460F7E4CCFB
:10086000C0E0C398F8603B94186008400DD0E0FBEE
:10087000020B2AE4FBFAC9FC8028E830E406E4C94C
:10088000FBE4CAFCE830E305E4C9CACBFCE8540742
:100890006010F8C3E913F9EA13FAEB13FBEC13FC4D
:1008A000D8F130F52FC3E49CFCEF9BFFEE9AFEEDF0
:1008B00099FDD0E0FBEF4E4D4C701222DB03020B92
:1008C0004FEC2CFCEF33FFEE33FEED33FDED30E764
:1008D000EB020B2AEF2BFFEE3AFEED39FDD0E0FBE9
:1008E00050130BBB0003020B52ED13FDEE13FEEF92
:0808F00013FFEC13FC020B2ABC
:1008F800EC4D6011E8497017ED33EC3304600DE4FA
:10090800FCFFFEFD22E933E8330470F8020B4812BD
:100918000B1358046009E4CC2481500628500902BE
:100928000B52284003020B4FC0E0EB4A7044B980D9
:1009380006D0E0FB020B3EEF4E701CBD8008EBFFBB
:10094800EAFEE9FD80EBE98DF0A4FEE5F00209E19D
:10095800E9CDF9EAFEEBFFEF89F0A4FCE5F0CE89DA
:10096800F0A42EFFE435F0CD89F0A42DFEE435F097
:100978008067EF4E7005BD80D780C3EF8BF0A4ACC5
:10098800F0EE8BF0A42CFCE435F0F8EF8AF0A42C00
:10099800E5F038FCE433CB8DF0A42CFCE5F03BF813
:1009A800EE8AF0A42CFCE5F038F8E433CF89F0A403
:1009B8002CFCE5F038CF3400CE89F0A42FFFE5F009
:1009C8003EFEE433C98DF0A42EFEE5F039CD8AF061
:1009D800A42FFFE5F03EFEE43DFD33D0E0FB5007D9
:1009E8000BBB000F020B52EC2CFCEF33FFEE33FE77
:0609F800ED33FD020B2AA5
:1009FE00020B52EC5D046005E859047003020B48CB
:100A0E00120B13580460F6EC4860F2EC7004FDFE15
:100A1E00FF22C860DB2481C85009C39860025006CB
:100A2E00020B4F9850CAF582E9294B4A7005AB82EA
:100A3E00020B3E75F0007C1A7880C3EF9BEE9AEDA8
:100A4E0099400DC3EF9BFFEE9AFEED99FDE842F043
:100A5E00DC23ACF0D0E0FFD0E0FED0E0FDAB822096
:100A6E00E7101BEB60BAEC2CFCEF33FFEE33FEED20
:100A7E0033FD020B2AE803F830E705C0F075F000ED
:100A8E00EF2FFFEE33FEED33FD40B830E7C280AA04
:100A9E0075F020800E75F010800575F0087D007ED3
:100AAE00007F003392D530D503120D09EC33401080
:100ABE00EF33FFEE33FEED33FDEC33FCD5F0ED22DC
:0E0ACE00E5F0247EA2D513CC92E7CDCEFF2218
:100ADC00EDD2E7CD33EC3392D524814006E4FFFE12
:100AEC00FDFC22FCE4CFCECDCC24E0501174FF8071
:100AFC00EDC3CC13CCCD13CDCE13CECF13CF04700E
:070B0C00F030D5DE020D09F7
:100B1300E9D2E7C933E833F892D5EDD2E7CD33EC28
:070B230033FC5002B2D522A1
:100B2A00EC30E7100FBF000C0EBE00080DBD00042C
:100B3A000BEB6014A2D5EB13FCED92E7FD2274FFD8
:100B4A00FCFDFEFF22E480F8A2D574FF13FC7D8031
:030B5A00E480EF45
:100FDE00020D23E493A3F8E493A34003F68001F2F9
:100FEE0008DFF48029E493A3F85407240CC8C33314
:100FFE00C4540F4420C8834004F456800146F6DFE3
:10100E00E4800B0102040810204080901359E47E06
:10101E00019360BCA3FF543F30E509541FFEE493D7
:10102E00A360010ECF54C025E060A840B8E493A39E
:10103E00FAE493A3F8E493A3C8C582C8CAC583CAC9
:10104E00F0A3C8C582C8CAC583CADFE9DEE780BE81
:01135C000090
:100B5D00E709F608DFFA8046E709F208DFFA803E7A
:100B6D0088828C83E709F0A3DFFA8032E309F60867
:100B7D00DFFA8078E309F208DFFA807088828C83CF
:100B8D00E309F0A3DFFA806489828A83E0A3F60883
:100B9D00DFFA805889828A83E0A3F208DFFA804C5D
:100BAD0080D280FA80C680D4806980F28033801034
:100BBD0080A680EA809A80A880DA80E280CA80339D
:100BCD0089828A83ECFAE493A3C8C582C8CCC58315
:100BDD00CCF0A3C8C582C8CCC583CCDFE9DEE780E5
:100BED000D89828A83E493A3F608DFF9ECFAA9F064
:100BFD00EDFB2289828A83ECFAE0A3C8C582C8CCBA
:100C0D00C583CCF0A3C8C582C8CCC583CCDFEADED2
:100C1D00E880DB89828A83E493A3F208DFF980CC34
:100C2D0088F0EF60010E4E60C388F0ED2402B4042D
:100C3D000050B9F582EB2402B4040050AF232345D4
:060C4D008223900BAD7341
:100C5300BB010689828A83E0225002E722BBFE029F
:090C6300E32289828A83E49322D2
:100C6C00EF8DF0A4A8F0CF8CF0A428CE8DF0A42E9C
:020C7C00FE2256
:100C7E00BC000BBE0029EF8DF084FFADF022E4CC5A
:100C8E00F875F008EF2FFFEE33FEEC33FCEE9DEC23
:100C9E00984005FCEE9DFE0FD5F0E9E4CEFD22ED69
:100CAE00F8F5F0EE8420D21CFEADF075F008EF2FB3
:100CBE00FFED33FD4007985006D5F0F222C398FDA4
:050CCE000FD5F0EA2241
:100CD300C2D5EC30E709B2D5E4C39DFDE49CFCEE3C
:100CE30030E715B2D5E4C39FFFE49EFE120C7EC32A
:100CF300E49DFDE49CFC8003120C7E30D507C3E425
:060D03009FFFE49EFE22AA
:0E0D0900C3E49FFFE49EFEE49DFDE49CFC22FB
:0C0D1700E6FC08E6FD08E6FE08E6FF2208
:00000001FF
