:03000000021107E3
:0C110700787FE4F6D8FD75810702114ED8
:10146300C0F9A4B0999282F880908883C6A1868E31
:021473007FFFF9
:0B149200862D020002010403811E00F1
:061216007BFE7A00792D39
:0A121C00787DEBF208EAF208E9F22F
:10122600C2B6C2B7E408F27880E2FFC394605037D2
:10123600EF24A0F5A0787DE2FB0808E2F92401F28C
:1012460018E2FA3400F2120B5DFF781A08E22F90CA
:10125600146393F580E4FF0FEFB464FB7580FF78A9
:0912660080E22410F280C0C2A74E
:01126F00225C
:10135C00782DEFF208EDF208EBF2787AE27830F2C1
:10136C00787BE27831F2787CE27832F27BFE7A009C
:05137C00792D02121C96
:1013FE0020A41278317409F27F647E001213A43097
:08140E00A4FD7F00227F0522EE
:0E1475008007EFB405081212161213FE80F461
:011483002246
:10145100EF14600804700AE4782EF222782E7401E9
:02146100F22275
:10141600782D7411F208F208F208F208740DF20839
:04142600740BF2222F
:10142A00782D7411F208F208F208F208740BF20827
:04143A00740EF22218
:10130700758925758DFD758BFD75CB4CE4F5CA1276
:1013170014A9D2CAD28ED28CD29CC29FD29ED2AFEF
:0F132700D2ACD2A9D2ADD2AAD2A8C28AC2882291
:101193007D067C00C3ED940AEC648094805032AFEA
:1011A30005EF25E024FCF8E2FA08E2FBEF25E02452
:1011B30005F8E22BFF18E23AC313F8EF13FFED250E
:1011C300E02400C8F208EFF274042DFDE43CFC8037
:1011D300C37C007D01C3ED940AEC6480948050329B
:1011E300AF05EF25E024FEF8E2FA08E2FBEF25E085
:1011F3002403F8E22BFF18E23AC313F8EF13FFEDD1
:1012030025E02400C8F208EFF274022DFDE43CFC53
:0212130080C396
:0112150022B6
:100C4600121307E47816F208F21212161213FEEFC8
:100C560064056004782DEFF2C290781EE2640160AC
:040C660003020E6A0D
:100C6A00787AF208F208F2FBFDFF12135C1214758F
:100C7A00E4786DF2786BF2087402F2C3786CE2944D
:100C8A000A18E29400507B787A7411F2E408F27838
:100C9A006B08E2787CF27B117D117F0A12135C12D9
:100CAA001475120ED9786BE2FC08E2FDFB25E024EC
:100CBA0000F8EEF208EFF2786DE2FF25E02423F85F
:100CCA00ECF208EDF2EB25E02400F8E2FC08E2FD84
:100CDA00EF25E02433F8ECF208EDF2787A7401F2A9
:100CEA0008F208F2FBFD7F0A12135C121475786D84
:100CFA00E204F218E225E0796CF318E23319F30200
:020D0A000C8556
:100D0C00E4786EF208F208F208F208F208F208F23F
:100D1C0008F2786DE27876F2786DE2F9D3940040BF
:100D2C0061E2FB25E02433F8E2FC08E2FDFFAE04AF
:100D3C00120B76786FE22FF218E23EF2EB25E024EC
:100D4C0033F8E2FE08E2FF7871E22FF218E23EF28D
:100D5C00E925E02423F8E2FC08E2FD120B76787317
:100D6C00E22FF218E23EF2E925E02423F8E2FE0835
:100D7C00E2FF7875E22FF218E23EF2786DE214F29F
:100D8C0080967876E2F9FF7E00786EE2FC08E2FD50
:100D9C00120B76AA06AB077870E2FC08E2FDFFAEF8
:100DAC0004120B76C3EB9FFBEA9EFAE9FF7E0078F8
:100DBC0072E2FC08E2FD120B768E838F827874E26D
:100DCC00FC08E2FD7870E2FE08E2FF120B76C3E548
:100DDC00829FFFE5839EFEAD03AC02120B88AC062E
:100DEC00AD07E4120AA3781F120C217876E2FF7E7D
:100DFC0000786EE2FC08E2FD120B76AA06AB0778CF
:100E0C0070E2FC08E2FD18E2FE08E2FF120B76C36A
:100E1C00EB9FFBEA9EFA7872E2FC08E2FD7870E246
:100E2C00FE08E2FF120B768E838F827874E2FC0848
:100E3C00E2FD786EE2FE08E2FF120B76C3EF9582BC
:100E4C00FFEE9583FEAD03AC02120B88AC06AD072A
:090E5C00E4120AA3783F120C21F4
:050E6500781E7403F289
:100E6A00781EE264026003020C4F120ED9AD07AC81
:100E7A0006EC120AA3781FE2FB08E2F908E2FA0874
:100E8A00E2CBF81208F8783FE2FB08E2F908E2FA46
:100E9A0008E2CBF8120807120ADC7823EEF208EF10
:100EAA00F2C39410EE9400E4787A500DF208F278C6
:100EBA002308E2787CF2E48005F208F208F2FBFDEE
:0F0ECA00FF12135C121475781E7403F2020C4FA2
:0B149E0020B707B29230B7FDB29222D7
:100ED900E47877F208F208F208F2787DF2087402F1
:100EE900F212143EE4787FF208F2C37880E29406A5
:100EF90018E294004003020F9012149E7818E2FE43
:100F090008E2FF7878E26F700318E26E60DC7C001B
:100F19007D14120B88ED64014C70CFC2AC787DE270
:100F2900FC08E2FD7879E2FE08E2FF120B88ED6425
:100F3900014C70367880E22401F218E23400F2782C
:100F49001DE2FEAD8C7C00E42D787CF2EC3E18F2BB
:100F5900121381787BE2FC08E2FDE4120AA3120F66
:100F6900971214A9E4781CF208F2D2AC787AE22438
:100F790001F218E23400F27818E2FF08E27877CF3C
:0D0F8900F208EFF2020EF3121484120ADCDB
:010F96002238
:03000B000213C419
:1013C400C0E0C0D075D000C000781DE22401F2183E
:0D13D400E23400F2C28FD000D0D0D0E03261
:030003000212BE28
:1012BE00C0E0C0F0C083C082C0D075D000C000C0F6
:1012CE0001C002C003C004C005C006C00712142A24
:1012DE007F0A7E001213A430B2FD782DE4F2D007FF
:1012EE00D006D005D004D003D002D001D000D0D08B
:0912FE00D082D083D0F0D0E032A0
:0300130002127066
:10127000C0E0C0F0C083C082C0D075D000C000C044
:1012800001C002C003C004C005C006C00712141686
:101290007F647E001213A430B3FD781E7401F278CF
:1012A0002DE4F2D007D006D005D004D003D002D070
:0E12B00001D000D0D0D082D083D0F0D0E03278
:030023000213368F
:10133600C0E0C0D075D000C000C007C298AF997891
:101346003DE4F208EFF27816E4F20804F2D007D092
:0613560000D0D0D0E0320F
:03002B000213E1DC
:1013E100C0E0C0D075D000C000C2CF7819E224019E
:0D13F100F218E23400F2D000D0D0D0E0328B
:1013A400E4FDFCC3ED9FEC9E5015E4FBFA0BBB007F
:0F13B400010AEB646E4A70F50DBD00010C80E478
:0113C3002207
:0614A900E4F58CF58A2237
:10105000E47851F208F2AB07784FF20804F2EB752E
:10106000F00A84FA75F00AA4FFC3EB9F2430FF78DE
:101070005108E22445F8EFF27852E22401F218E236
:101080003400F2EA700908E22445F8E4F28019AB72
:1010900002784FE2FE08E2FF7C007D0A120B7678B0
:1010A0004FEEF208EFF280B6E4784FF208F2785192
:1010B000E2FE08E2FF7C007D02120BDD784FE2FCCD
:1010C00008E2FDC39FEE6480F8EC6480985031AF75
:1010D0000574452FF8E2F9785108E2C39FFF744484
:1010E0002FF8E2FD784F08E22445F8EDF274442F22
:1010F000F8E9F27850E22401F218E23400F280AE0E
:061100007BFE7A00794538
:0111060022C6
:10143E00785F120C2D3C23D70A7863120C2D3C23B7
:03144E00D70A2298
:101381007853E2FC08E2FD08E2FE08E2FF08120CD5
:1013910021785FE2FC08E2FD08E2FE08E2FF7867DF
:0313A100020C211A
:100F97007881120C217863E2FC08E2FD08E2FE0882
:100FA700E2FF785FE2FB08E2F908E2FA08E2CBF831
:100FB700120807C004A905AA06AB07785FE2FC0878
:100FC700E2FD08E2FE08E2FFD000120A01785B1298
:100FD7000C21785BE2FB08E2F908E2FA08E2CBF8B9
:100FE700E4FFFE7D807C3F120803785FE2FB08E2A6
:100FF700F908E2FA08E2CBF81208F87867120C2130
:101007007857E2FB08E2F908E2FA08E2CBF8C000F9
:101017007881E2FC08E2FD08E2FE08E2FFD0001258
:101027000803785BE2FB08E2F908E2FA08E2CBF88A
:101037001208F87857E2FB08E2F908E2FA08E2CB6F
:09104700F81208077853020C218D
:0E1484007853E2FC08E2FD08E2FE08E2FF22D7
:10080000020B48E86480F8E933E83360110460F0D3
:10081000ED33EC337009E8FCE9FDEAFEEBFF22045E
:1008200060DED3EB9FEA9EE99DE8C2E78CF0C2F759
:1008300095F0400CE8CCF8E9CDF9EACEFAEBCFFB25
:10084000120B1385D0F05804700320D5B3E8047060
:10085000075002B2D5020B5292D5EC0460F7E4CCFB
:10086000C0E0C398F8603B94186008400DD0E0FBEE
:10087000020B2AE4FBFAC9FC8028E830E406E4C94C
:10088000FBE4CAFCE830E305E4C9CACBFCE8540742
:100890006010F8C3E913F9EA13FAEB13FBEC13FC4D
:1008A000D8F130F52FC3E49CFCEF9BFFEE9AFEEDF0
:1008B00099FDD0E0FBEF4E4D4C701222DB03020B92
:1008C0004FEC2CFCEF33FFEE33FEED33FDED30E764
:1008D000EB020B2AEF2BFFEE3AFEED39FDD0E0FBE9
:1008E00050130BBB0003020B52ED13FDEE13FEEF92
:0808F00013FFEC13FC020B2ABC
:1008F800EC4D6011E8497017ED33EC3304600DE4FA
:10090800FCFFFEFD22E933E8330470F8020B4812BD
:100918000B1358046009E4CC2481500628500902BE
:100928000B52284003020B4FC0E0EB4A7044B980D9
:1009380006D0E0FB020B3EEF4E701CBD8008EBFFBB
:10094800EAFEE9FD80EBE98DF0A4FEE5F00209E19D
:10095800E9CDF9EAFEEBFFEF89F0A4FCE5F0CE89DA
:10096800F0A42EFFE435F0CD89F0A42DFEE435F097
:100978008067EF4E7005BD80D780C3EF8BF0A4ACC5
:10098800F0EE8BF0A42CFCE435F0F8EF8AF0A42C00
:10099800E5F038FCE433CB8DF0A42CFCE5F03BF813
:1009A800EE8AF0A42CFCE5F038F8E433CF89F0A403
:1009B8002CFCE5F038CF3400CE89F0A42FFFE5F009
:1009C8003EFEE433C98DF0A42EFEE5F039CD8AF061
:1009D800A42FFFE5F03EFEE43DFD33D0E0FB5007D9
:1009E8000BBB000F020B52EC2CFCEF33FFEE33FE77
:0609F800ED33FD020B2AA5
:1009FE00020B52EC5D046005E859047003020B48CB
:100A0E00120B13580460F6EC4860F2EC7004FDFE15
:100A1E00FF22C860DB2481C85009C39860025006CB
:100A2E00020B4F9850CAF582E9294B4A7005AB82EA
:100A3E00020B3E75F0007C1A7880C3EF9BEE9AEDA8
:100A4E0099400DC3EF9BFFEE9AFEED99FDE842F043
:100A5E00DC23ACF0D0E0FFD0E0FED0E0FDAB822096
:100A6E00E7101BEB60BAEC2CFCEF33FFEE33FEED20
:100A7E0033FD020B2AE803F830E705C0F075F000ED
:100A8E00EF2FFFEE33FEED33FD40B830E7C280AA04
:100A9E0075F020800E75F010800575F0087D007ED3
:100AAE00007F003392D530D503120C13EC33401077
:100ABE00EF33FFEE33FEED33FDEC33FCD5F0ED22DC
:0E0ACE00E5F0247EA2D513CC92E7CDCEFF2218
:100ADC00EDD2E7CD33EC3392D524814006E4FFFE12
:100AEC00FDFC22FCE4CFCECDCC24E0501174FF8071
:100AFC00EDC3CC13CCCD13CDCE13CECF13CF04700E
:070B0C00F030D5DE020C13EE
:100B1300E9D2E7C933E833F892D5EDD2E7CD33EC28
:070B230033FC5002B2D522A1
:100B2A00EC30E7100FBF000C0EBE00080DBD00042C
:100B3A000BEB6014A2D5EB13FCED92E7FD2274FFD8
:100B4A00FCFDFEFF22E480F8A2D574FF13FC7D8031
:030B5A00E480EF45
:10111300020C46E493A3F8E493A34003F68001F2A0
:1011230008DFF48029E493A3F85407240CC8C333DD
:10113300C4540F4420C8834004F456800146F6DFAC
:10114300E4800B0102040810204080901492E47E96
:10115300019360BCA3FF543F30E509541FFEE493A1
:10116300A360010ECF54C025E060A840B8E493A368
:10117300FAE493A3F8E493A3C8C582C8CAC583CA93
:10118300F0A3C8C582C8CAC583CADFE9DEE780BE4B
:01149D00004E
:100B5D00BB010689828A83E0225002E722BBFE0296
:090B6D00E32289828A83E49322C9
:100B7600EF8DF0A4A8F0CF8CF0A428CE8DF0A42E93
:020B8600FE224D
:100B8800BC000BBE0029EF8DF084FFADF022E4CC51
:100B9800F875F008EF2FFFEE33FEEC33FCEE9DEC1A
:100BA800984005FCEE9DFE0FD5F0E9E4CEFD22ED60
:100BB800F8F5F0EE8420D21CFEADF075F008EF2FAA
:100BC800FFED33FD4007985006D5F0F222C398FD9B
:050BD8000FD5F0EA2238
:100BDD00C2D5EC30E709B2D5E4C39DFDE49CFCEE33
:100BED0030E715B2D5E4C39FFFE49EFE120B88C318
:100BFD00E49DFDE49CFC8003120B8830D507C3E413
:060C0D009FFFE49EFE22A1
:0E0C1300C3E49FFFE49EFEE49DFDE49CFC22F2
:0C0C2100ECF208EDF208EEF208EFF2220F
:100C2D00D083D082E493F208740193F20874029396
:090C3D00F208740393F2740473CD
:00000001FF
