:03000000020F8369
:0C0F8300787FE4F6D8FD758147020C6A07
:100E8100758925758DFD758BFD75CB4CE4F5CA1201
:100E91000F8FD2CAD28ED28CD29CC29FD29ED2AF99
:050EA100D2ACD2AD222D
:100F3E0020B7117F0A7E00120EEA20B707B2923058
:050F4E00B7FDB2922284
:100C6A00E4F508F509F50AF50BF50C750D05120EF4
:100C7A0081E4F540F541120E40C290120F3EE54163
:100C8A00640145407016C2ACAF45120D8D85459979
:100C9A003099FDC299D2ACE4F540F541E5096543C6
:100CAA007004E508654260D1AE42AF437C007D1412
:100CBA00120C09ED64014C70C0C2AC050BE50B7057
:100CCA0002050AAC0CAD0DAE0AFF120C09ED640167
:100CDA004C701975993A3099FDC299AF8C7E001201
:100CEA000EC9AF8A7E00120EC9120F8FD2AC85428E
:060CFA0008854309808318
:03002300020F0ABF
:100F0A00C0D075D000C007C298AF997544008F450C
:0B0F1A00754000754101D007D0D032B7
:03002B00020F675A
:0F0F6700C0E0C2CF0543E54370020542D0E0323F
:0D0F7600476F7420697400524553455400C4
:100EEA00E4FDFCC3ED9FEC9E5015E4FBFA0BBB003E
:0F0EFA00010AEB646E4A70F50DBD00010C80E437
:010F090022C5
:060F8F00E4F58CF58A2256
:100D8D00BF722BE4F50EF50F747D250FF582740FF0
:100D9D00350EF583E493F5993099FDC299050FE56C
:100DAD000F7002050E6405450E70DD020F8FBF64D6
:100DBD000EAF8C7E00120EC9AF8A7E00020EC9E402
:100DCD00F50EF50F7476250FF582740F350EF5833C
:100DDD00E493F5993099FDC299050FE50F70020561
:070DED000E6406450E70DDE7
:010DF40022DC
:100EC900120DF5120BDE6010F5993099FDC2997477
:100ED9000129F9E43AFA80EB75990A3099FDC2992A
:010EE90022E6
:100DF500900000AA07751A00751B01EA75F00A84B0
:100E0500FB75F00AA4FFC3EA9F2430FFAE8274107D
:100E15002EF8A607A3EB700974102582F8E4F68076
:100E250013AA03AE1AAF1B7C007D0A120BF78E1AAC
:0A0E35008F1B80C77B007A00791044
:010E3F002290
:100F530040533333404CCCCD404666664033333345
:040F6300402CCCCD85
:100EA60075370A7536D775352375343C753B0A7523
:100EB6003AD775392375383CE4F52BF52AF52975AB
:030EC6002840229F
:100F2500852B2F852A2E85292D85282C85373F85CC
:090F3500363E85353D85343C2231
:100D00008F278E268D258C24AF3BAE3AAD39AC387B
:100D1000AB37AA36A935A834120807A804A905AA32
:100D200006AB07AF37AE36AD35AC34120A018F33A0
:100D30008E328D318C30AB33AA32A931A830E4FF2A
:100D4000FE7D807C3F120803AB37AA36A935A83454
:100D50001208F88F3F8E3E8D3D8C3CAB2FAA2EA9FA
:100D60002DA82CAF27AE26AD25AC24120803AB333B
:100D7000AA32A931A8301208F8AB2FAA2EA92DA8A3
:0D0D80002C1208078F2B8E2A8D298C28221B
:100E4000780E7C007D007BFF7A0F79537E007F1443
:100E5000120BB8120EA6E4F522F523120F25E52396
:100E600025E025E0240EF8120C5E120D000523E5A6
:100E70002370020522C39405E5226480948040DB40
:010E8000224F
:10080000020AD3E86480F8E933E83360110460F049
:10081000ED33EC337009E8FCE9FDEAFEEBFF22045E
:1008200060DED3EB9FEA9EE99DE8C2E78CF0C2F759
:1008300095F0400CE8CCF8E9CDF9EACEFAEBCFFB25
:10084000120A9E85D0F05804700320D5B3E80470D6
:10085000075002B2D5020ADD92D5EC0460F7E4CC71
:10086000C0E0C398F8603B94186008400DD0E0FBEE
:10087000020AB5E4FBFAC9FC8028E830E406E4C9C2
:10088000FBE4CAFCE830E305E4C9CACBFCE8540742
:100890006010F8C3E913F9EA13FAEB13FBEC13FC4D
:1008A000D8F130F52FC3E49CFCEF9BFFEE9AFEEDF0
:1008B00099FDD0E0FBEF4E4D4C701222DB03020A93
:1008C000DAEC2CFCEF33FFEE33FEED33FDED30E7D9
:1008D000EB020AB5EF2BFFEE3AFEED39FDD0E0FB5F
:1008E00050130BBB0003020ADDED13FDEE13FEEF08
:0808F00013FFEC13FC020AB532
:1008F800EC4D6011E8497017ED33EC3304600DE4FA
:10090800FCFFFEFD22E933E8330470F8020AD31233
:100918000A9E58046009E4CC248150062850090234
:100928000ADD284003020ADAC0E0EB4A7044B980C5
:1009380006D0E0FB020AC9EF4E701CBD8008EBFF31
:10094800EAFEE9FD80EBE98DF0A4FEE5F00209E19D
:10095800E9CDF9EAFEEBFFEF89F0A4FCE5F0CE89DA
:10096800F0A42EFFE435F0CD89F0A42DFEE435F097
:100978008067EF4E7005BD80D780C3EF8BF0A4ACC5
:10098800F0EE8BF0A42CFCE435F0F8EF8AF0A42C00
:10099800E5F038FCE433CB8DF0A42CFCE5F03BF813
:1009A800EE8AF0A42CFCE5F038F8E433CF89F0A403
:1009B8002CFCE5F038CF3400CE89F0A42FFFE5F009
:1009C8003EFEE433C98DF0A42EFEE5F039CD8AF061
:1009D800A42FFFE5F03EFEE43DFD33D0E0FB5007D9
:1009E8000BBB000F020ADDEC2CFCEF33FFEE33FEED
:0609F800ED33FD020AB51B
:1009FE00020ADDEC5D046005E859047003020AD3B7
:100A0E00120A9E580460F6EC4860F2EC7004FDFE8B
:100A1E00FF22C860DB2481C85009C39860025006CB
:100A2E00020ADA9850CAF582E9294B4A7005AB8260
:100A3E00020AC975F0007C1A7880C3EF9BEE9AED1E
:100A4E0099400DC3EF9BFFEE9AFEED99FDE842F043
:100A5E00DC23ACF0D0E0FFD0E0FED0E0FDAB822096
:100A6E00E7101BEB60BAEC2CFCEF33FFEE33FEED20
:100A7E0033FD020AB5E803F830E705C0F075F00063
:100A8E00EF2FFFEE33FEED33FD40B830E7C280AA04
:100A9E00E9D2E7C933E833F892D5EDD2E7CD33EC9E
:070AAE0033FC5002B2D52217
:100AB500EC30E7100FBF000C0EBE00080DBD0004A2
:100AC5000BEB6014A2D5EB13FCED92E7FD2274FF4E
:100AD500FCFDFEFF22E480F8A2D574FF13FC7D80A7
:030AE500E480EFBB
:100AE800E709F608DFFA8046E709F208DFFA803EF0
:100AF80088828C83E709F0A3DFFA8032E309F608DD
:100B0800DFFA8078E309F208DFFA807088828C8344
:100B1800E309F0A3DFFA806489828A83E0A3F608F8
:100B2800DFFA805889828A83E0A3F208DFFA804CD2
:100B380080D280FA80C680D4806980F280338010A9
:100B480080A680EA809A80A880DA80E280CA803312
:100B580089828A83ECFAE493A3C8C582C8CCC5838A
:100B6800CCF0A3C8C582C8CCC583CCDFE9DEE7805A
:100B78000D89828A83E493A3F608DFF9ECFAA9F0D9
:100B8800EDFB2289828A83ECFAE0A3C8C582C8CC2F
:100B9800C583CCF0A3C8C582C8CCC583CCDFEADE48
:100BA800E880DB89828A83E493A3F208DFF980CCAA
:100BB80088F0EF60010E4E60C388F0ED2402B404A3
:100BC8000050B9F582EB2402B4040050AF2323454A
:060BD8008223900B38732C
:100BDE00BB010689828A83E0225002E722BBFE0215
:090BEE00E32289828A83E4932248
:100BF700EF8DF0A4A8F0CF8CF0A428CE8DF0A42E12
:020C0700FE22CB
:100C0900BC000BBE0029EF8DF084FFADF022E4CCCF
:100C1900F875F008EF2FFFEE33FEEC33FCEE9DEC98
:100C2900984005FCEE9DFE0FD5F0E9E4CEFD22EDDE
:100C3900F8F5F0EE8420D21CFEADF075F008EF2F28
:100C4900FFED33FD4007985006D5F0F222C398FD19
:050C59000FD5F0EA22B6
:0C0C5E00E6FC08E6FD08E6FE08E6FF22C2
:00000001FF
